{
  "_format": "hh-sol-artifact-1",
  "contractName": "TicketNFT",
  "sourceName": "contracts/TicketNFT.sol",
  "abi": [
    {
      "inputs": [],
      "stateMutability": "nonpayable",
      "type": "constructor"
    },
    {
      "inputs": [],
      "name": "ERC721EnumerableForbiddenBatchMint",
      "type": "error"
    },
    {
      "inputs": [
        {
          "internalType": "address",
          "name": "sender",
          "type": "address"
        },
        {
          "internalType": "uint256",
          "name": "tokenId",
          "type": "uint256"
        },
        {
          "internalType": "address",
          "name": "owner",
          "type": "address"
        }
      ],
      "name": "ERC721IncorrectOwner",
      "type": "error"
    },
    {
      "inputs": [
        {
          "internalType": "address",
          "name": "operator",
          "type": "address"
        },
        {
          "internalType": "uint256",
          "name": "tokenId",
          "type": "uint256"
        }
      ],
      "name": "ERC721InsufficientApproval",
      "type": "error"
    },
    {
      "inputs": [
        {
          "internalType": "address",
          "name": "approver",
          "type": "address"
        }
      ],
      "name": "ERC721InvalidApprover",
      "type": "error"
    },
    {
      "inputs": [
        {
          "internalType": "address",
          "name": "operator",
          "type": "address"
        }
      ],
      "name": "ERC721InvalidOperator",
      "type": "error"
    },
    {
      "inputs": [
        {
          "internalType": "address",
          "name": "owner",
          "type": "address"
        }
      ],
      "name": "ERC721InvalidOwner",
      "type": "error"
    },
    {
      "inputs": [
        {
          "internalType": "address",
          "name": "receiver",
          "type": "address"
        }
      ],
      "name": "ERC721InvalidReceiver",
      "type": "error"
    },
    {
      "inputs": [
        {
          "internalType": "address",
          "name": "sender",
          "type": "address"
        }
      ],
      "name": "ERC721InvalidSender",
      "type": "error"
    },
    {
      "inputs": [
        {
          "internalType": "uint256",
          "name": "tokenId",
          "type": "uint256"
        }
      ],
      "name": "ERC721NonexistentToken",
      "type": "error"
    },
    {
      "inputs": [
        {
          "internalType": "address",
          "name": "owner",
          "type": "address"
        },
        {
          "internalType": "uint256",
          "name": "index",
          "type": "uint256"
        }
      ],
      "name": "ERC721OutOfBoundsIndex",
      "type": "error"
    },
    {
      "inputs": [
        {
          "internalType": "address",
          "name": "owner",
          "type": "address"
        }
      ],
      "name": "OwnableInvalidOwner",
      "type": "error"
    },
    {
      "inputs": [
        {
          "internalType": "address",
          "name": "account",
          "type": "address"
        }
      ],
      "name": "OwnableUnauthorizedAccount",
      "type": "error"
    },
    {
      "inputs": [],
      "name": "ReentrancyGuardReentrantCall",
      "type": "error"
    },
    {
      "anonymous": false,
      "inputs": [
        {
          "indexed": true,
          "internalType": "address",
          "name": "owner",
          "type": "address"
        },
        {
          "indexed": true,
          "internalType": "address",
          "name": "approved",
          "type": "address"
        },
        {
          "indexed": true,
          "internalType": "uint256",
          "name": "tokenId",
          "type": "uint256"
        }
      ],
      "name": "Approval",
      "type": "event"
    },
    {
      "anonymous": false,
      "inputs": [
        {
          "indexed": true,
          "internalType": "address",
          "name": "owner",
          "type": "address"
        },
        {
          "indexed": true,
          "internalType": "address",
          "name": "operator",
          "type": "address"
        },
        {
          "indexed": false,
          "internalType": "bool",
          "name": "approved",
          "type": "bool"
        }
      ],
      "name": "ApprovalForAll",
      "type": "event"
    },
    {
      "anonymous": false,
      "inputs": [
        {
          "indexed": true,
          "internalType": "uint256",
          "name": "tokenId",
          "type": "uint256"
        },
        {
          "indexed": false,
          "internalType": "string",
          "name": "evento",
          "type": "string"
        },
        {
          "indexed": false,
          "internalType": "uint256",
          "name": "preco",
          "type": "uint256"
        },
        {
          "indexed": false,
          "internalType": "uint256",
          "name": "dataEvento",
          "type": "uint256"
        }
      ],
      "name": "IngressoCriado",
      "type": "event"
    },
    {
      "anonymous": false,
      "inputs": [
        {
          "indexed": true,
          "internalType": "uint256",
          "name": "tokenId",
          "type": "uint256"
        },
        {
          "indexed": false,
          "internalType": "uint256",
          "name": "novoPreco",
          "type": "uint256"
        }
      ],
      "name": "IngressoRevenda",
      "type": "event"
    },
    {
      "anonymous": false,
      "inputs": [
        {
          "indexed": true,
          "internalType": "uint256",
          "name": "tokenId",
          "type": "uint256"
        },
        {
          "indexed": true,
          "internalType": "address",
          "name": "comprador",
          "type": "address"
        },
        {
          "indexed": false,
          "internalType": "uint256",
          "name": "preco",
          "type": "uint256"
        }
      ],
      "name": "IngressoVendido",
      "type": "event"
    },
    {
      "anonymous": false,
      "inputs": [
        {
          "indexed": true,
          "internalType": "address",
          "name": "previousOwner",
          "type": "address"
        },
        {
          "indexed": true,
          "internalType": "address",
          "name": "newOwner",
          "type": "address"
        }
      ],
      "name": "OwnershipTransferred",
      "type": "event"
    },
    {
      "anonymous": false,
      "inputs": [
        {
          "indexed": true,
          "internalType": "address",
          "name": "from",
          "type": "address"
        },
        {
          "indexed": true,
          "internalType": "address",
          "name": "to",
          "type": "address"
        },
        {
          "indexed": true,
          "internalType": "uint256",
          "name": "tokenId",
          "type": "uint256"
        }
      ],
      "name": "Transfer",
      "type": "event"
    },
    {
      "inputs": [
        {
          "internalType": "address",
          "name": "to",
          "type": "address"
        },
        {
          "internalType": "uint256",
          "name": "tokenId",
          "type": "uint256"
        }
      ],
      "name": "approve",
      "outputs": [],
      "stateMutability": "nonpayable",
      "type": "function"
    },
    {
      "inputs": [
        {
          "internalType": "uint256",
          "name": "tokenId",
          "type": "uint256"
        },
        {
          "internalType": "enum TicketNFT.Status",
          "name": "novoStatus",
          "type": "uint8"
        }
      ],
      "name": "atualizarStatus",
      "outputs": [],
      "stateMutability": "nonpayable",
      "type": "function"
    },
    {
      "inputs": [
        {
          "internalType": "address",
          "name": "owner",
          "type": "address"
        }
      ],
      "name": "balanceOf",
      "outputs": [
        {
          "internalType": "uint256",
          "name": "",
          "type": "uint256"
        }
      ],
      "stateMutability": "view",
      "type": "function"
    },
    {
      "inputs": [
        {
          "internalType": "uint256",
          "name": "tokenId",
          "type": "uint256"
        }
      ],
      "name": "comprarIngresso",
      "outputs": [],
      "stateMutability": "payable",
      "type": "function"
    },
    {
      "inputs": [
        {
          "internalType": "string",
          "name": "_evento",
          "type": "string"
        },
        {
          "internalType": "uint256",
          "name": "_preco",
          "type": "uint256"
        },
        {
          "internalType": "uint256",
          "name": "_dataEvento",
          "type": "uint256"
        }
      ],
      "name": "criarIngresso",
      "outputs": [],
      "stateMutability": "nonpayable",
      "type": "function"
    },
    {
      "inputs": [
        {
          "internalType": "uint256",
          "name": "tokenId",
          "type": "uint256"
        }
      ],
      "name": "dataEvento",
      "outputs": [
        {
          "internalType": "uint256",
          "name": "",
          "type": "uint256"
        }
      ],
      "stateMutability": "view",
      "type": "function"
    },
    {
      "inputs": [
        {
          "internalType": "uint256",
          "name": "tokenId",
          "type": "uint256"
        }
      ],
      "name": "getApproved",
      "outputs": [
        {
          "internalType": "address",
          "name": "",
          "type": "address"
        }
      ],
      "stateMutability": "view",
      "type": "function"
    },
    {
      "inputs": [
        {
          "internalType": "uint256",
          "name": "",
          "type": "uint256"
        }
      ],
      "name": "ingressos",
      "outputs": [
        {
          "internalType": "string",
          "name": "evento",
          "type": "string"
        },
        {
          "internalType": "uint256",
          "name": "preco",
          "type": "uint256"
        },
        {
          "internalType": "uint256",
          "name": "dataEvento",
          "type": "uint256"
        },
        {
          "internalType": "enum TicketNFT.Status",
          "name": "status",
          "type": "uint8"
        }
      ],
      "stateMutability": "view",
      "type": "function"
    },
    {
      "inputs": [
        {
          "internalType": "address",
          "name": "usuario",
          "type": "address"
        }
      ],
      "name": "ingressosDoUsuario",
      "outputs": [
        {
          "internalType": "uint256[]",
          "name": "",
          "type": "uint256[]"
        }
      ],
      "stateMutability": "view",
      "type": "function"
    },
    {
      "inputs": [
        {
          "internalType": "address",
          "name": "owner",
          "type": "address"
        },
        {
          "internalType": "address",
          "name": "operator",
          "type": "address"
        }
      ],
      "name": "isApprovedForAll",
      "outputs": [
        {
          "internalType": "bool",
          "name": "",
          "type": "bool"
        }
      ],
      "stateMutability": "view",
      "type": "function"
    },
    {
      "inputs": [],
      "name": "listarIngressos",
      "outputs": [
        {
          "internalType": "uint256[]",
          "name": "",
          "type": "uint256[]"
        }
      ],
      "stateMutability": "view",
      "type": "function"
    },
    {
      "inputs": [],
      "name": "name",
      "outputs": [
        {
          "internalType": "string",
          "name": "",
          "type": "string"
        }
      ],
      "stateMutability": "view",
      "type": "function"
    },
    {
      "inputs": [],
      "name": "nextTokenId",
      "outputs": [
        {
          "internalType": "uint256",
          "name": "",
          "type": "uint256"
        }
      ],
      "stateMutability": "view",
      "type": "function"
    },
    {
      "inputs": [],
      "name": "owner",
      "outputs": [
        {
          "internalType": "address",
          "name": "",
          "type": "address"
        }
      ],
      "stateMutability": "view",
      "type": "function"
    },
    {
      "inputs": [
        {
          "internalType": "uint256",
          "name": "tokenId",
          "type": "uint256"
        }
      ],
      "name": "ownerOf",
      "outputs": [
        {
          "internalType": "address",
          "name": "",
          "type": "address"
        }
      ],
      "stateMutability": "view",
      "type": "function"
    },
    {
      "inputs": [],
      "name": "renounceOwnership",
      "outputs": [],
      "stateMutability": "nonpayable",
      "type": "function"
    },
    {
      "inputs": [
        {
          "internalType": "uint256",
          "name": "tokenId",
          "type": "uint256"
        },
        {
          "internalType": "uint256",
          "name": "novoPreco",
          "type": "uint256"
        }
      ],
      "name": "revenderIngresso",
      "outputs": [],
      "stateMutability": "nonpayable",
      "type": "function"
    },
    {
      "inputs": [
        {
          "internalType": "address",
          "name": "from",
          "type": "address"
        },
        {
          "internalType": "address",
          "name": "to",
          "type": "address"
        },
        {
          "internalType": "uint256",
          "name": "tokenId",
          "type": "uint256"
        }
      ],
      "name": "safeTransferFrom",
      "outputs": [],
      "stateMutability": "nonpayable",
      "type": "function"
    },
    {
      "inputs": [
        {
          "internalType": "address",
          "name": "from",
          "type": "address"
        },
        {
          "internalType": "address",
          "name": "to",
          "type": "address"
        },
        {
          "internalType": "uint256",
          "name": "tokenId",
          "type": "uint256"
        },
        {
          "internalType": "bytes",
          "name": "data",
          "type": "bytes"
        }
      ],
      "name": "safeTransferFrom",
      "outputs": [],
      "stateMutability": "nonpayable",
      "type": "function"
    },
    {
      "inputs": [
        {
          "internalType": "address",
          "name": "operator",
          "type": "address"
        },
        {
          "internalType": "bool",
          "name": "approved",
          "type": "bool"
        }
      ],
      "name": "setApprovalForAll",
      "outputs": [],
      "stateMutability": "nonpayable",
      "type": "function"
    },
    {
      "inputs": [
        {
          "internalType": "uint256",
          "name": "tokenId",
          "type": "uint256"
        }
      ],
      "name": "statusIngresso",
      "outputs": [
        {
          "internalType": "enum TicketNFT.Status",
          "name": "",
          "type": "uint8"
        }
      ],
      "stateMutability": "view",
      "type": "function"
    },
    {
      "inputs": [
        {
          "internalType": "bytes4",
          "name": "interfaceId",
          "type": "bytes4"
        }
      ],
      "name": "supportsInterface",
      "outputs": [
        {
          "internalType": "bool",
          "name": "",
          "type": "bool"
        }
      ],
      "stateMutability": "view",
      "type": "function"
    },
    {
      "inputs": [],
      "name": "symbol",
      "outputs": [
        {
          "internalType": "string",
          "name": "",
          "type": "string"
        }
      ],
      "stateMutability": "view",
      "type": "function"
    },
    {
      "inputs": [
        {
          "internalType": "uint256",
          "name": "index",
          "type": "uint256"
        }
      ],
      "name": "tokenByIndex",
      "outputs": [
        {
          "internalType": "uint256",
          "name": "",
          "type": "uint256"
        }
      ],
      "stateMutability": "view",
      "type": "function"
    },
    {
      "inputs": [
        {
          "internalType": "address",
          "name": "owner",
          "type": "address"
        },
        {
          "internalType": "uint256",
          "name": "index",
          "type": "uint256"
        }
      ],
      "name": "tokenOfOwnerByIndex",
      "outputs": [
        {
          "internalType": "uint256",
          "name": "",
          "type": "uint256"
        }
      ],
      "stateMutability": "view",
      "type": "function"
    },
    {
      "inputs": [
        {
          "internalType": "uint256",
          "name": "tokenId",
          "type": "uint256"
        }
      ],
      "name": "tokenURI",
      "outputs": [
        {
          "internalType": "string",
          "name": "",
          "type": "string"
        }
      ],
      "stateMutability": "view",
      "type": "function"
    },
    {
      "inputs": [],
      "name": "totalSupply",
      "outputs": [
        {
          "internalType": "uint256",
          "name": "",
          "type": "uint256"
        }
      ],
      "stateMutability": "view",
      "type": "function"
    },
    {
      "inputs": [
        {
          "internalType": "address",
          "name": "from",
          "type": "address"
        },
        {
          "internalType": "address",
          "name": "to",
          "type": "address"
        },
        {
          "internalType": "uint256",
          "name": "tokenId",
          "type": "uint256"
        }
      ],
      "name": "transferFrom",
      "outputs": [],
      "stateMutability": "nonpayable",
      "type": "function"
    },
    {
      "inputs": [
        {
          "internalType": "address",
          "name": "newOwner",
          "type": "address"
        }
      ],
      "name": "transferOwnership",
      "outputs": [],
      "stateMutability": "nonpayable",
      "type": "function"
    },
    {
      "inputs": [
        {
          "internalType": "uint256",
          "name": "tokenId",
          "type": "uint256"
        }
      ],
      "name": "verificarIngresso",
      "outputs": [
        {
          "internalType": "bool",
          "name": "",
          "type": "bool"
        }
      ],
      "stateMutability": "view",
      "type": "function"
    }
  ],
  "bytecode": "0x608034620003a0576001600160401b03906040818101838111838210176200038a5781526009825260209268151a58dad95d13919560ba1b84840152815190828201828110828211176200038a578352600491828152631510d2d560e21b8682015284519082821162000375576000968754926001978885811c951680156200036a575b8386101462000357578190601f9586811162000304575b508390868311600114620002a0578b9262000294575b5050600019600383901b1c191690881b1788555b8151938411620002815786548781811c9116801562000276575b82821014620002635790818486959493116200020c575b5080928411600114620001a45750879262000198575b5050600019600383901b1c191690841b1783555b3315620001835750600a8054336001600160a01b03198216811790925591519390916001600160a01b0316907f8be0079c531659141344cd1fd0a4f28419497f9722a3daafe3b4186f6b6457e09080a380600b55600c55611d559081620003a68239f35b836024925191631e4fbdf760e01b8352820152fd5b0151905038806200010b565b9190879450601f198416858a52838a20938a905b828210620001f25750508411620001d8575b505050811b0183556200011f565b015160001960f88460031b161c19169055388080620001ca565b8484015186558a97909501949384019390810190620001b8565b90919293508789528189208480870160051c82019284881062000259575b9187968b92969594930160051c01915b8281106200024a575050620000f5565b8b81558796508a91016200023a565b925081926200022a565b634e487b7160e01b895260228652602489fd5b90607f1690620000de565b634e487b7160e01b885260418552602488fd5b015190503880620000b0565b8b8052848c208b94509190601f1984168d5b87828210620002ed5750508411620002d3575b505050811b018855620000c4565b015160001960f88460031b161c19169055388080620002c5565b8385015186558e97909501949384019301620002b2565b9091508a8052838b208680850160051c8201928686106200034d575b918c91869594930160051c01915b8281106200033e5750506200009a565b8d81558594508c91016200032e565b9250819262000320565b634e487b7160e01b8a526022875260248afd5b94607f169462000083565b604184634e487b7160e01b6000525260246000fd5b634e487b7160e01b600052604160045260246000fd5b600080fdfe608080604052600436101561001357600080fd5b60003560e01c90816301ffc9a7146111c15750806306fdde031461111e578063081812fc146110e0578063095ea7b314610ff95780630af47e1414610fac5780630df4932d14610f6957806318160ddd14610f4b57806323b872dd14610f345780632b6e7eb414610ee25780632f745c5914610ebb578063305248fb14610e9357806342842e0e14610e655780634f6ccce714610e47578063574ccbc614610d5c5780635d26e8fa14610cf55780636352211e14610cc557806370a0823114610c9a578063715018a614610c3d57806375794a3c14610c1f5780638da5cb5b14610bf65780638f9c654c14610ba157806395d89b4114610ac2578063a22cb46514610a1d578063a833431a1461095f578063b7b28ee814610588578063b88d4fde1461051a578063c87b56dd146104c3578063c8b86c6d14610252578063e985e9c5146101fc5763f2fde38b1461016957600080fd5b346101f75760203660031901126101f757610182611286565b61018a6113fa565b6001600160a01b039081169081156101de57600a54826bffffffffffffffffffffffff60a01b821617600a55167f8be0079c531659141344cd1fd0a4f28419497f9722a3daafe3b4186f6b6457e0600080a3005b604051631e4fbdf760e01b815260006004820152602490fd5b600080fd5b346101f75760403660031901126101f757610215611286565b61021d61129c565b9060018060a01b03809116600052600560205260406000209116600052602052602060ff604060002054166040519015158152f35b6020806003193601126101f7576004356002600b54146104b1576002600b556001600160a01b0361028e8161028684611716565b161515611c0e565b81600052600d83526040600020906102a583611716565b90600383019283549060ff8216600381101561049b5760011461045657600101938454341061041c57828416913383146103e55760ff19166001179055600080808034855af16102f3611abf565b50156103ae57331561039557610309853361183a565b9182168061032a57604051637e27328960e01b815260048101879052602490fd5b036103645750505460405190815233927f9e589efcb0cc842edca0193136ec83dae8949ca5493aef39b6c71d45b0dc99db91a36001600b55005b6040516364283d7b60e01b81526001600160a01b039283166004820152602481019490945216604483015250606490fd5b604051633250574960e11b815260006004820152602490fd5b60405162461bcd60e51b815260048101879052600f60248201526e151c985b9cd9995c8819985a5b1959608a1b6044820152606490fd5b60405162461bcd60e51b815260048101899052600f60248201526e566f6365206a6120656820646f6e6f60881b6044820152606490fd5b60405162461bcd60e51b815260048101889052601260248201527156616c6f7220696e737566696369656e746560701b6044820152606490fd5b60405162461bcd60e51b815260048101889052601960248201527f496e67726573736f206e616f206573746120612076656e6461000000000000006044820152606490fd5b634e487b7160e01b600052602160045260246000fd5b604051633ee5aeb560e01b8152600490fd5b346101f75760203660031901126101f7576104df600435611716565b5060006040516104ee81611369565b526105166040516104fe81611369565b60008152604051918291602083526020830190611246565b0390f35b346101f75760803660031901126101f757610533611286565b61053b61129c565b906044356064359267ffffffffffffffff84116101f757366023850112156101f7576105746105869436906024816004013591016113c3565b9261058083838361145f565b33611aef565b005b346101f75760603660031901126101f75767ffffffffffffffff6004358181116101f757366023820112156101f7576105cb9036906024816004013591016113c3565b906105d46113fa565b42604435111561091a57600c54906105eb82611bd1565b600c55600a546040516001600160a01b03918216949161060a82611369565b6000825285156103955761061e858761183a565b1661090157843b610807575b509091925060405160808101818110848211176107f157604052818152602435602082015260443560408201526000606082015283600052600d602052604060002092815180519182116107f157610682855461132f565b601f81116107ad575b50602090601f831160011461074257606093929160009183610737575b50508160011b916000199060031b1c19161784555b6020810151600185015560408101516002850155015190600382101561049b5761070e6107229260037f6f818adb419e049450d1d43ce9a84db8f23fe2ad514723541ab7bf9684cdb6669501611bf6565b604051918291606083526060830190611246565b602435602083015260443560408301520390a2005b0151905087806106a8565b90601f198316918660005260206000209260005b818110610795575091600193918560609796941061077c575b505050811b0184556106bd565b015160001960f88460031b161c1916905587808061076f565b92936020600181928786015181550195019301610756565b856000526020600020601f840160051c8101602085106107ea575b601f830160051c820181106107de57505061068b565b600081556001016107c8565b50806107c8565b634e487b7160e01b600052604160045260246000fd5b60405160208180610841630a85bd0160e11b9586835233600484015260006024840152896044840152608060648401526084830190611246565b038160008a5af1600091816108bd575b50610888578561085f611abf565b805191908261088157604051633250574960e11b815260048101839052602490fd5b6020915001fd5b63ffffffff60e096939495961b16036108a557509082918461062a565b60249060405190633250574960e11b82526004820152fd5b9091506020813d82116108f9575b816108d860209383611385565b810103126101f757516001600160e01b0319811681036101f7579087610851565b3d91506108cb565b6040516339e3563760e11b815260006004820152602490fd5b60405162461bcd60e51b815260206004820152601e60248201527f4461746120646f206576656e746f2064657665207365722066757475726100006044820152606490fd5b346101f75760403660031901126101f7576004356024356001600160a01b0361098b8161028685611716565b61099483611716565b339116036109ea5760207f8be115ffe66ef5771884b3f15ce409bd9eedf70ad2538fe809527531e2545e059183600052600d82526003604060002082600182015501600260ff19825416179055604051908152a2005b60405162461bcd60e51b815260206004820152600b60248201526a4e616f20656820646f6e6f60a81b6044820152606490fd5b346101f75760403660031901126101f757610a36611286565b602435908115158092036101f7576001600160a01b0316908115610aa957336000526005602052604060002082600052602052604060002060ff1981541660ff83161790556040519081527f17307eab39ab6107e8899845ad3d59bd9653f200f220920489ca2b5937696c3160203392a3005b604051630b61174360e31b815260048101839052602490fd5b346101f75760003660031901126101f75760405160006001805490610ae68261132f565b80855291818116908115610b7a5750600114610b21575b61051684610b0d81860382611385565b604051918291602083526020830190611246565b600081815292507fb10e2d527612073b26eecdfd717e6a320cf44b4afac2b0732d9fcbe2b7fa0cf65b828410610b62575050508101602001610b0d82610afd565b80546020858701810191909152909301928101610b4a565b60ff191660208087019190915292151560051b85019092019250610b0d9150839050610afd565b346101f75760403660031901126101f75760043560243560038110156101f75761058691610bcd6113fa565b610be16001600160a01b0361028683611716565b600052600d6020526003604060002001611bf6565b346101f75760003660031901126101f757600a546040516001600160a01b039091168152602090f35b346101f75760003660031901126101f7576020600c54604051908152f35b346101f75760003660031901126101f757610c566113fa565b600a80546001600160a01b031981169091556000906001600160a01b03167f8be0079c531659141344cd1fd0a4f28419497f9722a3daafe3b4186f6b6457e08280a3005b346101f75760203660031901126101f7576020610cbd610cb8611286565b611426565b604051908152f35b346101f75760203660031901126101f7576020610ce3600435611716565b6040516001600160a01b039091168152f35b346101f75760203660031901126101f757610d0e611286565b610d1781611426565b610d2081611cd9565b9160005b828110610d39576040518061051686826112f4565b80610d47610d579284611751565b610d518287611d0b565b52611bd1565b610d24565b346101f7576020806003193601126101f757600435600052600d81526040600020604051906000815490610d8f8261132f565b808552600192808416908115610e2b5750600114610df7575b509161051691610dbe85610de497950386611385565b8101549060ff600360028301549201541691604051968796608088526080880190611246565b94860152604085015260608401906112b2565b60008481528681209092505b818310610e1857505083018401610516610da8565b8054868401880152918601918301610e03565b60ff19168688015250151560051b840185019050610516610da8565b346101f75760203660031901126101f7576020610cbd6004356117fe565b346101f757610586610e76366112bf565b9060405192610e8484611369565b6000845261058083838361145f565b346101f75760203660031901126101f7576020610eb1600435611c51565b6040519015158152f35b346101f75760403660031901126101f7576020610cbd610ed9611286565b60243590611751565b346101f75760003660031901126101f757600854610eff81611cd9565b9060005b818110610f18576040518061051685826112f4565b80610f25610f2f926117fe565b610d518286611d0b565b610f03565b346101f757610586610f45366112bf565b9161145f565b346101f75760003660031901126101f7576020600854604051908152f35b346101f75760203660031901126101f757600435610f916001600160a01b0361028683611716565b600052600d6020526020600260406000200154604051908152f35b346101f75760203660031901126101f757600435610fd46001600160a01b0361028683611716565b600052600d602052602060ff60036040600020015416610ff760405180926112b2565bf35b346101f75760403660031901126101f757611012611286565b60243561101e81611716565b331515806110cd575b806110a0575b611088576001600160a01b039283169282918491167f8c5be1e5ebec7d5bd14f71427d1e84f3dd0314c0f7b2291e5b200ac8c7c3b925600080a4600090815260046020526040902080546001600160a01b0319169091179055005b60405163a9fbf51f60e01b8152336004820152602490fd5b5060018060a01b038116600052600560205260406000203360005260205260ff604060002054161561102d565b506001600160a01b038116331415611027565b346101f75760203660031901126101f7576004356110fd81611716565b506000526004602052602060018060a01b0360406000205416604051908152f35b346101f75760003660031901126101f7576040516000805461113f8161132f565b80845290600190818116908115610b7a57506001146111685761051684610b0d81860382611385565b600080805292507f290decd9548b62a8d60345a988386fc84ba6bc95484008f6362f93160ef3e5635b8284106111a9575050508101602001610b0d82610afd565b80546020858701810191909152909301928101611191565b346101f75760203660031901126101f7576004359063ffffffff60e01b82168092036101f75760209163780e9d6360e01b8114908115611203575b5015158152f35b6380ac58cd60e01b811491508115611235575b8115611224575b50836111fc565b6301ffc9a760e01b1490508361121d565b635b5e139f60e01b81149150611216565b919082519283825260005b848110611272575050826000602080949584010152601f8019910116010190565b602081830181015184830182015201611251565b600435906001600160a01b03821682036101f757565b602435906001600160a01b03821682036101f757565b90600382101561049b5752565b60609060031901126101f7576001600160a01b039060043582811681036101f7579160243590811681036101f7579060443590565b6020908160408183019282815285518094520193019160005b82811061131b575050505090565b83518552938101939281019260010161130d565b90600182811c9216801561135f575b602083101461134957565b634e487b7160e01b600052602260045260246000fd5b91607f169161133e565b6020810190811067ffffffffffffffff8211176107f157604052565b90601f8019910116810190811067ffffffffffffffff8211176107f157604052565b67ffffffffffffffff81116107f157601f01601f191660200190565b9291926113cf826113a7565b916113dd6040519384611385565b8294818452818301116101f7578281602093846000960137010152565b600a546001600160a01b0316330361140e57565b60405163118cdaa760e01b8152336004820152602490fd5b6001600160a01b0316801561144657600052600360205260406000205490565b6040516322718ad960e21b815260006004820152602490fd5b906001600160a01b0380821690811561039557600091858352602092600284526040938385832054169533151580611688575b5086158015611655575b84845260038352868420805460010190558984526002835286842080546001600160a01b031916861790558985897fddf252ad1be2c89b69c2b068fc378daa952ba7f163c4a11628f55a4df523b3ef8780a4156115e957600854898452600983528087852055600160401b8110156115d5578961152282600161153b94016008556117b1565b90919082549060031b91821b91600019901b1916179055565b838703611583575b50505050831682036115555750505050565b516364283d7b60e01b81526001600160a01b0392831660048201526024810193909352166044820152606490fd5b61158c90611426565b6000198101939084116115c1578291600791879452600681528383208584528152898484205589835252205538808080611543565b634e487b7160e01b83526011600452602483fd5b634e487b7160e01b84526041600452602484fd5b86841461153b576115f987611426565b8984526007835286842054908885526006845287852091818103611633575b508a855260078452848881205584528252828681205561153b565b81865282855288862054818752808a8820558652600785528886205538611618565b60008a815260046020526040902080546001600160a01b031916905587845260038352868420805460001901905561149c565b806116d5575b156116995738611492565b8589886116b6576024915190637e27328960e01b82526004820152fd5b905163177e802f60e01b81523360048201526024810191909152604490fd5b5033871480156116fa575b8061168e575088835260048252338587852054161461168e565b5086835260058252858320338452825260ff86842054166116e0565b6000818152600260205260409020546001600160a01b0316908115611739575090565b60249060405190637e27328960e01b82526004820152fd5b61175a81611426565b8210156117865760018060a01b0316600052600660205260406000209060005260205260406000205490565b60405163295f44f760e21b81526001600160a01b039190911660048201526024810191909152604490fd5b6008548110156117e85760086000527ff3f7a9fe364faab93b216da50a3214154f22a0a2b415b23a84c8169e8b636ee30190600090565b634e487b7160e01b600052603260045260246000fd5b60085481101561181b57611811906117b1565b90549060031b1c90565b6044906040519063295f44f760e21b8252600060048301526024820152fd5b6000828152600260209081526040808320546001600160a01b039081169592949192918615918215611a8c575b8116918215908115611a76575b8487526002885285872080546001600160a01b0319168517905584848a7fddf252ad1be2c89b69c2b068fc378daa952ba7f163c4a11628f55a4df523b3ef8a80a415611a0a57600854848752600988528086882055600160401b8110156119f657846115228260016118e994016008556117b1565b1561198d57505060085460001994858201918211611979579060098392869594865281815261191b85872054936117b1565b90549060031b1c61192f81611522866117b1565b8652528284205582528120556008549081156119655750810190611952826117b1565b909182549160031b1b1916905560085590565b634e487b7160e01b81526031600452602490fd5b634e487b7160e01b85526011600452602485fd5b818796939296959495036119a5575b50505050505090565b6119ae90611426565b6000198101959086116119e2578352600682528383208584528252838320819055825260079052205538808080808061199c565b634e487b7160e01b84526011600452602484fd5b634e487b7160e01b87526041600452602487fd5b8783146118e957611a1a88611426565b8487526007885285872054908988526006895286882091818103611a54575b508588526007895287878120558752875285858120556118e9565b818952828a5287892054818a5280898b2055895260078a528789205538611a39565b8387526003885285872060018154019055611874565b600084815260046020526040902080546001600160a01b0319169055878652600387528486208054600019019055611867565b3d15611aea573d90611ad0826113a7565b91611ade6040519384611385565b82523d6000602084013e565b606090565b9293823b611aff575b5050505050565b611b439060018060a01b038094169560405194859481630a85bd0160e11b988988521660048701521660248501526044840152608060648401526084830190611246565b03906020816000938185885af190829082611b82575b5050611b68578261085f611abf565b6001600160e01b031916036108a557503880808080611af8565b909192506020813d8211611bc9575b81611b9e60209383611385565b81010312611bc55751906001600160e01b031982168203611bc25750903880611b59565b80fd5b5080fd5b3d9150611b91565b6000198114611be05760010190565b634e487b7160e01b600052601160045260246000fd5b90600381101561049b5760ff80198354169116179055565b15611c1557565b60405162461bcd60e51b8152602060048201526014602482015273496e67726573736f20696e6578697374656e746560601b6044820152606490fd5b604051906331a9108f60e11b82526004820152602081602481305afa9081611c83575b50611c7e57600090565b600190565b6020813d8211611cb9575b81611c9b60209383611385565b810103126101f757516001600160a01b038116036101f75738611c74565b3d9150611c8e565b67ffffffffffffffff81116107f15760051b60200190565b90611ce382611cc1565b611cf06040519182611385565b8281528092611d01601f1991611cc1565b0190602036910137565b80518210156117e85760209160051b01019056fea2646970667358221220f964ad9c0ff86eca3aa640b9add5b1743d8cb9fb08c0040f9831ef109568a31b64736f6c63430008140033",
  "linkReferences": {},
  "deployedLinkReferences": {}
}