{"contracts/TicketNFT.sol":{"TicketNFT":{"abi":[{"inputs":[],"stateMutability":"nonpayable","type":"constructor"},{"inputs":[],"name":"ERC721EnumerableForbiddenBatchMint","type":"error"},{"inputs":[{"internalType":"address","name":"sender","type":"address"},{"internalType":"uint256","name":"tokenId","type":"uint256"},{"internalType":"address","name":"owner","type":"address"}],"name":"ERC721IncorrectOwner","type":"error"},{"inputs":[{"internalType":"address","name":"operator","type":"address"},{"internalType":"uint256","name":"tokenId","type":"uint256"}],"name":"ERC721InsufficientApproval","type":"error"},{"inputs":[{"internalType":"address","name":"approver","type":"address"}],"name":"ERC721InvalidApprover","type":"error"},{"inputs":[{"internalType":"address","name":"operator","type":"address"}],"name":"ERC721InvalidOperator","type":"error"},{"inputs":[{"internalType":"address","name":"owner","type":"address"}],"name":"ERC721InvalidOwner","type":"error"},{"inputs":[{"internalType":"address","name":"receiver","type":"address"}],"name":"ERC721InvalidReceiver","type":"error"},{"inputs":[{"internalType":"address","name":"sender","type":"address"}],"name":"ERC721InvalidSender","type":"error"},{"inputs":[{"internalType":"uint256","name":"tokenId","type":"uint256"}],"name":"ERC721NonexistentToken","type":"error"},{"inputs":[{"internalType":"address","name":"owner","type":"address"},{"internalType":"uint256","name":"index","type":"uint256"}],"name":"ERC721OutOfBoundsIndex","type":"error"},{"inputs":[{"internalType":"address","name":"owner","type":"address"}],"name":"OwnableInvalidOwner","type":"error"},{"inputs":[{"internalType":"address","name":"account","type":"address"}],"name":"OwnableUnauthorizedAccount","type":"error"},{"inputs":[],"name":"ReentrancyGuardReentrantCall","type":"error"},{"anonymous":false,"inputs":[{"indexed":true,"internalType":"address","name":"owner","type":"address"},{"indexed":true,"internalType":"address","name":"approved","type":"address"},{"indexed":true,"internalType":"uint256","name":"tokenId","type":"uint256"}],"name":"Approval","type":"event"},{"anonymous":false,"inputs":[{"indexed":true,"internalType":"address","name":"owner","type":"address"},{"indexed":true,"internalType":"address","name":"operator","type":"address"},{"indexed":false,"internalType":"bool","name":"approved","type":"bool"}],"name":"ApprovalForAll","type":"event"},{"anonymous":false,"inputs":[{"indexed":true,"internalType":"uint256","name":"tokenId","type":"uint256"},{"indexed":false,"internalType":"string","name":"evento","type":"string"},{"indexed":false,"internalType":"uint256","name":"preco","type":"uint256"},{"indexed":false,"internalType":"uint256","name":"dataEvento","type":"uint256"}],"name":"IngressoCriado","type":"event"},{"anonymous":false,"inputs":[{"indexed":true,"internalType":"uint256","name":"tokenId","type":"uint256"},{"indexed":false,"internalType":"uint256","name":"novoPreco","type":"uint256"}],"name":"IngressoRevenda","type":"event"},{"anonymous":false,"inputs":[{"indexed":true,"internalType":"uint256","name":"tokenId","type":"uint256"},{"indexed":true,"internalType":"address","name":"comprador","type":"address"},{"indexed":false,"internalType":"uint256","name":"preco","type":"uint256"}],"name":"IngressoVendido","type":"event"},{"anonymous":false,"inputs":[{"indexed":true,"internalType":"address","name":"previousOwner","type":"address"},{"indexed":true,"internalType":"address","name":"newOwner","type":"address"}],"name":"OwnershipTransferred","type":"event"},{"anonymous":false,"inputs":[{"indexed":true,"internalType":"address","name":"from","type":"address"},{"indexed":true,"internalType":"address","name":"to","type":"address"},{"indexed":true,"internalType":"uint256","name":"tokenId","type":"uint256"}],"name":"Transfer","type":"event"},{"inputs":[{"internalType":"address","name":"to","type":"address"},{"internalType":"uint256","name":"tokenId","type":"uint256"}],"name":"approve","outputs":[],"stateMutability":"nonpayable","type":"function"},{"inputs":[{"internalType":"uint256","name":"tokenId","type":"uint256"},{"internalType":"enum TicketNFT.Status","name":"novoStatus","type":"uint8"}],"name":"atualizarStatus","outputs":[],"stateMutability":"nonpayable","type":"function"},{"inputs":[{"internalType":"address","name":"owner","type":"address"}],"name":"balanceOf","outputs":[{"internalType":"uint256","name":"","type":"uint256"}],"stateMutability":"view","type":"function"},{"inputs":[{"internalType":"uint256","name":"tokenId","type":"uint256"}],"name":"comprarIngresso","outputs":[],"stateMutability":"payable","type":"function"},{"inputs":[{"internalType":"string","name":"_evento","type":"string"},{"internalType":"uint256","name":"_preco","type":"uint256"},{"internalType":"uint256","name":"_dataEvento","type":"uint256"}],"name":"criarIngresso","outputs":[],"stateMutability":"nonpayable","type":"function"},{"inputs":[{"internalType":"uint256","name":"tokenId","type":"uint256"}],"name":"dataEvento","outputs":[{"internalType":"uint256","name":"","type":"uint256"}],"stateMutability":"view","type":"function"},{"inputs":[{"internalType":"uint256","name":"tokenId","type":"uint256"}],"name":"getApproved","outputs":[{"internalType":"address","name":"","type":"address"}],"stateMutability":"view","type":"function"},{"inputs":[{"internalType":"uint256","name":"","type":"uint256"}],"name":"ingressos","outputs":[{"internalType":"string","name":"evento","type":"string"},{"internalType":"uint256","name":"preco","type":"uint256"},{"internalType":"uint256","name":"dataEvento","type":"uint256"},{"internalType":"enum TicketNFT.Status","name":"status","type":"uint8"}],"stateMutability":"view","type":"function"},{"inputs":[{"internalType":"address","name":"usuario","type":"address"}],"name":"ingressosDoUsuario","outputs":[{"internalType":"uint256[]","name":"","type":"uint256[]"}],"stateMutability":"view","type":"function"},{"inputs":[{"internalType":"address","name":"owner","type":"address"},{"internalType":"address","name":"operator","type":"address"}],"name":"isApprovedForAll","outputs":[{"internalType":"bool","name":"","type":"bool"}],"stateMutability":"view","type":"function"},{"inputs":[],"name":"listarIngressos","outputs":[{"internalType":"uint256[]","name":"","type":"uint256[]"}],"stateMutability":"view","type":"function"},{"inputs":[],"name":"name","outputs":[{"internalType":"string","name":"","type":"string"}],"stateMutability":"view","type":"function"},{"inputs":[],"name":"nextTokenId","outputs":[{"internalType":"uint256","name":"","type":"uint256"}],"stateMutability":"view","type":"function"},{"inputs":[],"name":"owner","outputs":[{"internalType":"address","name":"","type":"address"}],"stateMutability":"view","type":"function"},{"inputs":[{"internalType":"uint256","name":"tokenId","type":"uint256"}],"name":"ownerOf","outputs":[{"internalType":"address","name":"","type":"address"}],"stateMutability":"view","type":"function"},{"inputs":[],"name":"renounceOwnership","outputs":[],"stateMutability":"nonpayable","type":"function"},{"inputs":[{"internalType":"uint256","name":"tokenId","type":"uint256"},{"internalType":"uint256","name":"novoPreco","type":"uint256"}],"name":"revenderIngresso","outputs":[],"stateMutability":"nonpayable","type":"function"},{"inputs":[{"internalType":"address","name":"from","type":"address"},{"internalType":"address","name":"to","type":"address"},{"internalType":"uint256","name":"tokenId","type":"uint256"}],"name":"safeTransferFrom","outputs":[],"stateMutability":"nonpayable","type":"function"},{"inputs":[{"internalType":"address","name":"from","type":"address"},{"internalType":"address","name":"to","type":"address"},{"internalType":"uint256","name":"tokenId","type":"uint256"},{"internalType":"bytes","name":"data","type":"bytes"}],"name":"safeTransferFrom","outputs":[],"stateMutability":"nonpayable","type":"function"},{"inputs":[{"internalType":"address","name":"operator","type":"address"},{"internalType":"bool","name":"approved","type":"bool"}],"name":"setApprovalForAll","outputs":[],"stateMutability":"nonpayable","type":"function"},{"inputs":[{"internalType":"uint256","name":"tokenId","type":"uint256"}],"name":"statusIngresso","outputs":[{"internalType":"enum TicketNFT.Status","name":"","type":"uint8"}],"stateMutability":"view","type":"function"},{"inputs":[{"internalType":"bytes4","name":"interfaceId","type":"bytes4"}],"name":"supportsInterface","outputs":[{"internalType":"bool","name":"","type":"bool"}],"stateMutability":"view","type":"function"},{"inputs":[],"name":"symbol","outputs":[{"internalType":"string","name":"","type":"string"}],"stateMutability":"view","type":"function"},{"inputs":[{"internalType":"uint256","name":"index","type":"uint256"}],"name":"tokenByIndex","outputs":[{"internalType":"uint256","name":"","type":"uint256"}],"stateMutability":"view","type":"function"},{"inputs":[{"internalType":"address","name":"owner","type":"address"},{"internalType":"uint256","name":"index","type":"uint256"}],"name":"tokenOfOwnerByIndex","outputs":[{"internalType":"uint256","name":"","type":"uint256"}],"stateMutability":"view","type":"function"},{"inputs":[{"internalType":"uint256","name":"tokenId","type":"uint256"}],"name":"tokenURI","outputs":[{"internalType":"string","name":"","type":"string"}],"stateMutability":"view","type":"function"},{"inputs":[],"name":"totalSupply","outputs":[{"internalType":"uint256","name":"","type":"uint256"}],"stateMutability":"view","type":"function"},{"inputs":[{"internalType":"address","name":"from","type":"address"},{"internalType":"address","name":"to","type":"address"},{"internalType":"uint256","name":"tokenId","type":"uint256"}],"name":"transferFrom","outputs":[],"stateMutability":"nonpayable","type":"function"},{"inputs":[{"internalType":"address","name":"newOwner","type":"address"}],"name":"transferOwnership","outputs":[],"stateMutability":"nonpayable","type":"function"},{"inputs":[{"internalType":"uint256","name":"tokenId","type":"uint256"}],"name":"verificarIngresso","outputs":[{"internalType":"bool","name":"","type":"bool"}],"stateMutability":"view","type":"function"}],"evm":{"bytecode":{"linkReferences":{},"object":"608034620003a0576001600160401b03906040818101838111838210176200038a5781526009825260209268151a58dad95d13919560ba1b84840152815190828201828110828211176200038a578352600491828152631510d2d560e21b8682015284519082821162000375576000968754926001978885811c951680156200036a575b8386101462000357578190601f9586811162000304575b508390868311600114620002a0578b9262000294575b5050600019600383901b1c191690881b1788555b8151938411620002815786548781811c9116801562000276575b82821014620002635790818486959493116200020c575b5080928411600114620001a45750879262000198575b5050600019600383901b1c191690841b1783555b3315620001835750600a8054336001600160a01b03198216811790925591519390916001600160a01b0316907f8be0079c531659141344cd1fd0a4f28419497f9722a3daafe3b4186f6b6457e09080a380600b55600c55611d559081620003a68239f35b836024925191631e4fbdf760e01b8352820152fd5b0151905038806200010b565b9190879450601f198416858a52838a20938a905b828210620001f25750508411620001d8575b505050811b0183556200011f565b015160001960f88460031b161c19169055388080620001ca565b8484015186558a97909501949384019390810190620001b8565b90919293508789528189208480870160051c82019284881062000259575b9187968b92969594930160051c01915b8281106200024a575050620000f5565b8b81558796508a91016200023a565b925081926200022a565b634e487b7160e01b895260228652602489fd5b90607f1690620000de565b634e487b7160e01b885260418552602488fd5b015190503880620000b0565b8b8052848c208b94509190601f1984168d5b87828210620002ed5750508411620002d3575b505050811b018855620000c4565b015160001960f88460031b161c19169055388080620002c5565b8385015186558e97909501949384019301620002b2565b9091508a8052838b208680850160051c8201928686106200034d575b918c91869594930160051c01915b8281106200033e5750506200009a565b8d81558594508c91016200032e565b9250819262000320565b634e487b7160e01b8a526022875260248afd5b94607f169462000083565b604184634e487b7160e01b6000525260246000fd5b634e487b7160e01b600052604160045260246000fd5b600080fdfe608080604052600436101561001357600080fd5b60003560e01c90816301ffc9a7146111c15750806306fdde031461111e578063081812fc146110e0578063095ea7b314610ff95780630af47e1414610fac5780630df4932d14610f6957806318160ddd14610f4b57806323b872dd14610f345780632b6e7eb414610ee25780632f745c5914610ebb578063305248fb14610e9357806342842e0e14610e655780634f6ccce714610e47578063574ccbc614610d5c5780635d26e8fa14610cf55780636352211e14610cc557806370a0823114610c9a578063715018a614610c3d57806375794a3c14610c1f5780638da5cb5b14610bf65780638f9c654c14610ba157806395d89b4114610ac2578063a22cb46514610a1d578063a833431a1461095f578063b7b28ee814610588578063b88d4fde1461051a578063c87b56dd146104c3578063c8b86c6d14610252578063e985e9c5146101fc5763f2fde38b1461016957600080fd5b346101f75760203660031901126101f757610182611286565b61018a6113fa565b6001600160a01b039081169081156101de57600a54826bffffffffffffffffffffffff60a01b821617600a55167f8be0079c531659141344cd1fd0a4f28419497f9722a3daafe3b4186f6b6457e0600080a3005b604051631e4fbdf760e01b815260006004820152602490fd5b600080fd5b346101f75760403660031901126101f757610215611286565b61021d61129c565b9060018060a01b03809116600052600560205260406000209116600052602052602060ff604060002054166040519015158152f35b6020806003193601126101f7576004356002600b54146104b1576002600b556001600160a01b0361028e8161028684611716565b161515611c0e565b81600052600d83526040600020906102a583611716565b90600383019283549060ff8216600381101561049b5760011461045657600101938454341061041c57828416913383146103e55760ff19166001179055600080808034855af16102f3611abf565b50156103ae57331561039557610309853361183a565b9182168061032a57604051637e27328960e01b815260048101879052602490fd5b036103645750505460405190815233927f9e589efcb0cc842edca0193136ec83dae8949ca5493aef39b6c71d45b0dc99db91a36001600b55005b6040516364283d7b60e01b81526001600160a01b039283166004820152602481019490945216604483015250606490fd5b604051633250574960e11b815260006004820152602490fd5b60405162461bcd60e51b815260048101879052600f60248201526e151c985b9cd9995c8819985a5b1959608a1b6044820152606490fd5b60405162461bcd60e51b815260048101899052600f60248201526e566f6365206a6120656820646f6e6f60881b6044820152606490fd5b60405162461bcd60e51b815260048101889052601260248201527156616c6f7220696e737566696369656e746560701b6044820152606490fd5b60405162461bcd60e51b815260048101889052601960248201527f496e67726573736f206e616f206573746120612076656e6461000000000000006044820152606490fd5b634e487b7160e01b600052602160045260246000fd5b604051633ee5aeb560e01b8152600490fd5b346101f75760203660031901126101f7576104df600435611716565b5060006040516104ee81611369565b526105166040516104fe81611369565b60008152604051918291602083526020830190611246565b0390f35b346101f75760803660031901126101f757610533611286565b61053b61129c565b906044356064359267ffffffffffffffff84116101f757366023850112156101f7576105746105869436906024816004013591016113c3565b9261058083838361145f565b33611aef565b005b346101f75760603660031901126101f75767ffffffffffffffff6004358181116101f757366023820112156101f7576105cb9036906024816004013591016113c3565b906105d46113fa565b42604435111561091a57600c54906105eb82611bd1565b600c55600a546040516001600160a01b03918216949161060a82611369565b6000825285156103955761061e858761183a565b1661090157843b610807575b509091925060405160808101818110848211176107f157604052818152602435602082015260443560408201526000606082015283600052600d602052604060002092815180519182116107f157610682855461132f565b601f81116107ad575b50602090601f831160011461074257606093929160009183610737575b50508160011b916000199060031b1c19161784555b6020810151600185015560408101516002850155015190600382101561049b5761070e6107229260037f6f818adb419e049450d1d43ce9a84db8f23fe2ad514723541ab7bf9684cdb6669501611bf6565b604051918291606083526060830190611246565b602435602083015260443560408301520390a2005b0151905087806106a8565b90601f198316918660005260206000209260005b818110610795575091600193918560609796941061077c575b505050811b0184556106bd565b015160001960f88460031b161c1916905587808061076f565b92936020600181928786015181550195019301610756565b856000526020600020601f840160051c8101602085106107ea575b601f830160051c820181106107de57505061068b565b600081556001016107c8565b50806107c8565b634e487b7160e01b600052604160045260246000fd5b60405160208180610841630a85bd0160e11b9586835233600484015260006024840152896044840152608060648401526084830190611246565b038160008a5af1600091816108bd575b50610888578561085f611abf565b805191908261088157604051633250574960e11b815260048101839052602490fd5b6020915001fd5b63ffffffff60e096939495961b16036108a557509082918461062a565b60249060405190633250574960e11b82526004820152fd5b9091506020813d82116108f9575b816108d860209383611385565b810103126101f757516001600160e01b0319811681036101f7579087610851565b3d91506108cb565b6040516339e3563760e11b815260006004820152602490fd5b60405162461bcd60e51b815260206004820152601e60248201527f4461746120646f206576656e746f2064657665207365722066757475726100006044820152606490fd5b346101f75760403660031901126101f7576004356024356001600160a01b0361098b8161028685611716565b61099483611716565b339116036109ea5760207f8be115ffe66ef5771884b3f15ce409bd9eedf70ad2538fe809527531e2545e059183600052600d82526003604060002082600182015501600260ff19825416179055604051908152a2005b60405162461bcd60e51b815260206004820152600b60248201526a4e616f20656820646f6e6f60a81b6044820152606490fd5b346101f75760403660031901126101f757610a36611286565b602435908115158092036101f7576001600160a01b0316908115610aa957336000526005602052604060002082600052602052604060002060ff1981541660ff83161790556040519081527f17307eab39ab6107e8899845ad3d59bd9653f200f220920489ca2b5937696c3160203392a3005b604051630b61174360e31b815260048101839052602490fd5b346101f75760003660031901126101f75760405160006001805490610ae68261132f565b80855291818116908115610b7a5750600114610b21575b61051684610b0d81860382611385565b604051918291602083526020830190611246565b600081815292507fb10e2d527612073b26eecdfd717e6a320cf44b4afac2b0732d9fcbe2b7fa0cf65b828410610b62575050508101602001610b0d82610afd565b80546020858701810191909152909301928101610b4a565b60ff191660208087019190915292151560051b85019092019250610b0d9150839050610afd565b346101f75760403660031901126101f75760043560243560038110156101f75761058691610bcd6113fa565b610be16001600160a01b0361028683611716565b600052600d6020526003604060002001611bf6565b346101f75760003660031901126101f757600a546040516001600160a01b039091168152602090f35b346101f75760003660031901126101f7576020600c54604051908152f35b346101f75760003660031901126101f757610c566113fa565b600a80546001600160a01b031981169091556000906001600160a01b03167f8be0079c531659141344cd1fd0a4f28419497f9722a3daafe3b4186f6b6457e08280a3005b346101f75760203660031901126101f7576020610cbd610cb8611286565b611426565b604051908152f35b346101f75760203660031901126101f7576020610ce3600435611716565b6040516001600160a01b039091168152f35b346101f75760203660031901126101f757610d0e611286565b610d1781611426565b610d2081611cd9565b9160005b828110610d39576040518061051686826112f4565b80610d47610d579284611751565b610d518287611d0b565b52611bd1565b610d24565b346101f7576020806003193601126101f757600435600052600d81526040600020604051906000815490610d8f8261132f565b808552600192808416908115610e2b5750600114610df7575b509161051691610dbe85610de497950386611385565b8101549060ff600360028301549201541691604051968796608088526080880190611246565b94860152604085015260608401906112b2565b60008481528681209092505b818310610e1857505083018401610516610da8565b8054868401880152918601918301610e03565b60ff19168688015250151560051b840185019050610516610da8565b346101f75760203660031901126101f7576020610cbd6004356117fe565b346101f757610586610e76366112bf565b9060405192610e8484611369565b6000845261058083838361145f565b346101f75760203660031901126101f7576020610eb1600435611c51565b6040519015158152f35b346101f75760403660031901126101f7576020610cbd610ed9611286565b60243590611751565b346101f75760003660031901126101f757600854610eff81611cd9565b9060005b818110610f18576040518061051685826112f4565b80610f25610f2f926117fe565b610d518286611d0b565b610f03565b346101f757610586610f45366112bf565b9161145f565b346101f75760003660031901126101f7576020600854604051908152f35b346101f75760203660031901126101f757600435610f916001600160a01b0361028683611716565b600052600d6020526020600260406000200154604051908152f35b346101f75760203660031901126101f757600435610fd46001600160a01b0361028683611716565b600052600d602052602060ff60036040600020015416610ff760405180926112b2565bf35b346101f75760403660031901126101f757611012611286565b60243561101e81611716565b331515806110cd575b806110a0575b611088576001600160a01b039283169282918491167f8c5be1e5ebec7d5bd14f71427d1e84f3dd0314c0f7b2291e5b200ac8c7c3b925600080a4600090815260046020526040902080546001600160a01b0319169091179055005b60405163a9fbf51f60e01b8152336004820152602490fd5b5060018060a01b038116600052600560205260406000203360005260205260ff604060002054161561102d565b506001600160a01b038116331415611027565b346101f75760203660031901126101f7576004356110fd81611716565b506000526004602052602060018060a01b0360406000205416604051908152f35b346101f75760003660031901126101f7576040516000805461113f8161132f565b80845290600190818116908115610b7a57506001146111685761051684610b0d81860382611385565b600080805292507f290decd9548b62a8d60345a988386fc84ba6bc95484008f6362f93160ef3e5635b8284106111a9575050508101602001610b0d82610afd565b80546020858701810191909152909301928101611191565b346101f75760203660031901126101f7576004359063ffffffff60e01b82168092036101f75760209163780e9d6360e01b8114908115611203575b5015158152f35b6380ac58cd60e01b811491508115611235575b8115611224575b50836111fc565b6301ffc9a760e01b1490508361121d565b635b5e139f60e01b81149150611216565b919082519283825260005b848110611272575050826000602080949584010152601f8019910116010190565b602081830181015184830182015201611251565b600435906001600160a01b03821682036101f757565b602435906001600160a01b03821682036101f757565b90600382101561049b5752565b60609060031901126101f7576001600160a01b039060043582811681036101f7579160243590811681036101f7579060443590565b6020908160408183019282815285518094520193019160005b82811061131b575050505090565b83518552938101939281019260010161130d565b90600182811c9216801561135f575b602083101461134957565b634e487b7160e01b600052602260045260246000fd5b91607f169161133e565b6020810190811067ffffffffffffffff8211176107f157604052565b90601f8019910116810190811067ffffffffffffffff8211176107f157604052565b67ffffffffffffffff81116107f157601f01601f191660200190565b9291926113cf826113a7565b916113dd6040519384611385565b8294818452818301116101f7578281602093846000960137010152565b600a546001600160a01b0316330361140e57565b60405163118cdaa760e01b8152336004820152602490fd5b6001600160a01b0316801561144657600052600360205260406000205490565b6040516322718ad960e21b815260006004820152602490fd5b906001600160a01b0380821690811561039557600091858352602092600284526040938385832054169533151580611688575b5086158015611655575b84845260038352868420805460010190558984526002835286842080546001600160a01b031916861790558985897fddf252ad1be2c89b69c2b068fc378daa952ba7f163c4a11628f55a4df523b3ef8780a4156115e957600854898452600983528087852055600160401b8110156115d5578961152282600161153b94016008556117b1565b90919082549060031b91821b91600019901b1916179055565b838703611583575b50505050831682036115555750505050565b516364283d7b60e01b81526001600160a01b0392831660048201526024810193909352166044820152606490fd5b61158c90611426565b6000198101939084116115c1578291600791879452600681528383208584528152898484205589835252205538808080611543565b634e487b7160e01b83526011600452602483fd5b634e487b7160e01b84526041600452602484fd5b86841461153b576115f987611426565b8984526007835286842054908885526006845287852091818103611633575b508a855260078452848881205584528252828681205561153b565b81865282855288862054818752808a8820558652600785528886205538611618565b60008a815260046020526040902080546001600160a01b031916905587845260038352868420805460001901905561149c565b806116d5575b156116995738611492565b8589886116b6576024915190637e27328960e01b82526004820152fd5b905163177e802f60e01b81523360048201526024810191909152604490fd5b5033871480156116fa575b8061168e575088835260048252338587852054161461168e565b5086835260058252858320338452825260ff86842054166116e0565b6000818152600260205260409020546001600160a01b0316908115611739575090565b60249060405190637e27328960e01b82526004820152fd5b61175a81611426565b8210156117865760018060a01b0316600052600660205260406000209060005260205260406000205490565b60405163295f44f760e21b81526001600160a01b039190911660048201526024810191909152604490fd5b6008548110156117e85760086000527ff3f7a9fe364faab93b216da50a3214154f22a0a2b415b23a84c8169e8b636ee30190600090565b634e487b7160e01b600052603260045260246000fd5b60085481101561181b57611811906117b1565b90549060031b1c90565b6044906040519063295f44f760e21b8252600060048301526024820152fd5b6000828152600260209081526040808320546001600160a01b039081169592949192918615918215611a8c575b8116918215908115611a76575b8487526002885285872080546001600160a01b0319168517905584848a7fddf252ad1be2c89b69c2b068fc378daa952ba7f163c4a11628f55a4df523b3ef8a80a415611a0a57600854848752600988528086882055600160401b8110156119f657846115228260016118e994016008556117b1565b1561198d57505060085460001994858201918211611979579060098392869594865281815261191b85872054936117b1565b90549060031b1c61192f81611522866117b1565b8652528284205582528120556008549081156119655750810190611952826117b1565b909182549160031b1b1916905560085590565b634e487b7160e01b81526031600452602490fd5b634e487b7160e01b85526011600452602485fd5b818796939296959495036119a5575b50505050505090565b6119ae90611426565b6000198101959086116119e2578352600682528383208584528252838320819055825260079052205538808080808061199c565b634e487b7160e01b84526011600452602484fd5b634e487b7160e01b87526041600452602487fd5b8783146118e957611a1a88611426565b8487526007885285872054908988526006895286882091818103611a54575b508588526007895287878120558752875285858120556118e9565b818952828a5287892054818a5280898b2055895260078a528789205538611a39565b8387526003885285872060018154019055611874565b600084815260046020526040902080546001600160a01b0319169055878652600387528486208054600019019055611867565b3d15611aea573d90611ad0826113a7565b91611ade6040519384611385565b82523d6000602084013e565b606090565b9293823b611aff575b5050505050565b611b439060018060a01b038094169560405194859481630a85bd0160e11b988988521660048701521660248501526044840152608060648401526084830190611246565b03906020816000938185885af190829082611b82575b5050611b68578261085f611abf565b6001600160e01b031916036108a557503880808080611af8565b909192506020813d8211611bc9575b81611b9e60209383611385565b81010312611bc55751906001600160e01b031982168203611bc25750903880611b59565b80fd5b5080fd5b3d9150611b91565b6000198114611be05760010190565b634e487b7160e01b600052601160045260246000fd5b90600381101561049b5760ff80198354169116179055565b15611c1557565b60405162461bcd60e51b8152602060048201526014602482015273496e67726573736f20696e6578697374656e746560601b6044820152606490fd5b604051906331a9108f60e11b82526004820152602081602481305afa9081611c83575b50611c7e57600090565b600190565b6020813d8211611cb9575b81611c9b60209383611385565b810103126101f757516001600160a01b038116036101f75738611c74565b3d9150611c8e565b67ffffffffffffffff81116107f15760051b60200190565b90611ce382611cc1565b611cf06040519182611385565b8281528092611d01601f1991611cc1565b0190602036910137565b80518210156117e85760209160051b01019056fea2646970667358221220f964ad9c0ff86eca3aa640b9add5b1743d8cb9fb08c0040f9831ef109568a31b64736f6c63430008140033","opcodes":"PUSH1 0x80 CALLVALUE PUSH3 0x3A0 JUMPI PUSH1 0x1 PUSH1 0x1 PUSH1 0x40 SHL SUB SWAP1 PUSH1 0x40 DUP2 DUP2 ADD DUP4 DUP2 GT DUP4 DUP3 LT OR PUSH3 0x38A JUMPI DUP2 MSTORE PUSH1 0x9 DUP3 MSTORE PUSH1 0x20 SWAP3 PUSH9 0x151A58DAD95D139195 PUSH1 0xBA SHL DUP5 DUP5 ADD MSTORE DUP2 MLOAD SWAP1 DUP3 DUP3 ADD DUP3 DUP2 LT DUP3 DUP3 GT OR PUSH3 0x38A JUMPI DUP4 MSTORE PUSH1 0x4 SWAP2 DUP3 DUP2 MSTORE PUSH4 0x1510D2D5 PUSH1 0xE2 SHL DUP7 DUP3 ADD MSTORE DUP5 MLOAD SWAP1 DUP3 DUP3 GT PUSH3 0x375 JUMPI PUSH1 0x0 SWAP7 DUP8 SLOAD SWAP3 PUSH1 0x1 SWAP8 DUP9 DUP6 DUP2 SHR SWAP6 AND DUP1 ISZERO PUSH3 0x36A JUMPI JUMPDEST DUP4 DUP7 LT EQ PUSH3 0x357 JUMPI DUP2 SWAP1 PUSH1 0x1F SWAP6 DUP7 DUP2 GT PUSH3 0x304 JUMPI JUMPDEST POP DUP4 SWAP1 DUP7 DUP4 GT PUSH1 0x1 EQ PUSH3 0x2A0 JUMPI DUP12 SWAP3 PUSH3 0x294 JUMPI JUMPDEST POP POP PUSH1 0x0 NOT PUSH1 0x3 DUP4 SWAP1 SHL SHR NOT AND SWAP1 DUP9 SHL OR DUP9 SSTORE JUMPDEST DUP2 MLOAD SWAP4 DUP5 GT PUSH3 0x281 JUMPI DUP7 SLOAD DUP8 DUP2 DUP2 SHR SWAP2 AND DUP1 ISZERO PUSH3 0x276 JUMPI JUMPDEST DUP3 DUP3 LT EQ PUSH3 0x263 JUMPI SWAP1 DUP2 DUP5 DUP7 SWAP6 SWAP5 SWAP4 GT PUSH3 0x20C JUMPI JUMPDEST POP DUP1 SWAP3 DUP5 GT PUSH1 0x1 EQ PUSH3 0x1A4 JUMPI POP DUP8 SWAP3 PUSH3 0x198 JUMPI JUMPDEST POP POP PUSH1 0x0 NOT PUSH1 0x3 DUP4 SWAP1 SHL SHR NOT AND SWAP1 DUP5 SHL OR DUP4 SSTORE JUMPDEST CALLER ISZERO PUSH3 0x183 JUMPI POP PUSH1 0xA DUP1 SLOAD CALLER PUSH1 0x1 PUSH1 0x1 PUSH1 0xA0 SHL SUB NOT DUP3 AND DUP2 OR SWAP1 SWAP3 SSTORE SWAP2 MLOAD SWAP4 SWAP1 SWAP2 PUSH1 0x1 PUSH1 0x1 PUSH1 0xA0 SHL SUB AND SWAP1 PUSH32 0x8BE0079C531659141344CD1FD0A4F28419497F9722A3DAAFE3B4186F6B6457E0 SWAP1 DUP1 LOG3 DUP1 PUSH1 0xB SSTORE PUSH1 0xC SSTORE PUSH2 0x1D55 SWAP1 DUP2 PUSH3 0x3A6 DUP3 CODECOPY RETURN JUMPDEST DUP4 PUSH1 0x24 SWAP3 MLOAD SWAP2 PUSH4 0x1E4FBDF7 PUSH1 0xE0 SHL DUP4 MSTORE DUP3 ADD MSTORE REVERT JUMPDEST ADD MLOAD SWAP1 POP CODESIZE DUP1 PUSH3 0x10B JUMP JUMPDEST SWAP2 SWAP1 DUP8 SWAP5 POP PUSH1 0x1F NOT DUP5 AND DUP6 DUP11 MSTORE DUP4 DUP11 KECCAK256 SWAP4 DUP11 SWAP1 JUMPDEST DUP3 DUP3 LT PUSH3 0x1F2 JUMPI POP POP DUP5 GT PUSH3 0x1D8 JUMPI JUMPDEST POP POP POP DUP2 SHL ADD DUP4 SSTORE PUSH3 0x11F JUMP JUMPDEST ADD MLOAD PUSH1 0x0 NOT PUSH1 0xF8 DUP5 PUSH1 0x3 SHL AND SHR NOT AND SWAP1 SSTORE CODESIZE DUP1 DUP1 PUSH3 0x1CA JUMP JUMPDEST DUP5 DUP5 ADD MLOAD DUP7 SSTORE DUP11 SWAP8 SWAP1 SWAP6 ADD SWAP5 SWAP4 DUP5 ADD SWAP4 SWAP1 DUP2 ADD SWAP1 PUSH3 0x1B8 JUMP JUMPDEST SWAP1 SWAP2 SWAP3 SWAP4 POP DUP8 DUP10 MSTORE DUP2 DUP10 KECCAK256 DUP5 DUP1 DUP8 ADD PUSH1 0x5 SHR DUP3 ADD SWAP3 DUP5 DUP9 LT PUSH3 0x259 JUMPI JUMPDEST SWAP2 DUP8 SWAP7 DUP12 SWAP3 SWAP7 SWAP6 SWAP5 SWAP4 ADD PUSH1 0x5 SHR ADD SWAP2 JUMPDEST DUP3 DUP2 LT PUSH3 0x24A JUMPI POP POP PUSH3 0xF5 JUMP JUMPDEST DUP12 DUP2 SSTORE DUP8 SWAP7 POP DUP11 SWAP2 ADD PUSH3 0x23A JUMP JUMPDEST SWAP3 POP DUP2 SWAP3 PUSH3 0x22A JUMP JUMPDEST PUSH4 0x4E487B71 PUSH1 0xE0 SHL DUP10 MSTORE PUSH1 0x22 DUP7 MSTORE PUSH1 0x24 DUP10 REVERT JUMPDEST SWAP1 PUSH1 0x7F AND SWAP1 PUSH3 0xDE JUMP JUMPDEST PUSH4 0x4E487B71 PUSH1 0xE0 SHL DUP9 MSTORE PUSH1 0x41 DUP6 MSTORE PUSH1 0x24 DUP9 REVERT JUMPDEST ADD MLOAD SWAP1 POP CODESIZE DUP1 PUSH3 0xB0 JUMP JUMPDEST DUP12 DUP1 MSTORE DUP5 DUP13 KECCAK256 DUP12 SWAP5 POP SWAP2 SWAP1 PUSH1 0x1F NOT DUP5 AND DUP14 JUMPDEST DUP8 DUP3 DUP3 LT PUSH3 0x2ED JUMPI POP POP DUP5 GT PUSH3 0x2D3 JUMPI JUMPDEST POP POP POP DUP2 SHL ADD DUP9 SSTORE PUSH3 0xC4 JUMP JUMPDEST ADD MLOAD PUSH1 0x0 NOT PUSH1 0xF8 DUP5 PUSH1 0x3 SHL AND SHR NOT AND SWAP1 SSTORE CODESIZE DUP1 DUP1 PUSH3 0x2C5 JUMP JUMPDEST DUP4 DUP6 ADD MLOAD DUP7 SSTORE DUP15 SWAP8 SWAP1 SWAP6 ADD SWAP5 SWAP4 DUP5 ADD SWAP4 ADD PUSH3 0x2B2 JUMP JUMPDEST SWAP1 SWAP2 POP DUP11 DUP1 MSTORE DUP4 DUP12 KECCAK256 DUP7 DUP1 DUP6 ADD PUSH1 0x5 SHR DUP3 ADD SWAP3 DUP7 DUP7 LT PUSH3 0x34D JUMPI JUMPDEST SWAP2 DUP13 SWAP2 DUP7 SWAP6 SWAP5 SWAP4 ADD PUSH1 0x5 SHR ADD SWAP2 JUMPDEST DUP3 DUP2 LT PUSH3 0x33E JUMPI POP POP PUSH3 0x9A JUMP JUMPDEST DUP14 DUP2 SSTORE DUP6 SWAP5 POP DUP13 SWAP2 ADD PUSH3 0x32E JUMP JUMPDEST SWAP3 POP DUP2 SWAP3 PUSH3 0x320 JUMP JUMPDEST PUSH4 0x4E487B71 PUSH1 0xE0 SHL DUP11 MSTORE PUSH1 0x22 DUP8 MSTORE PUSH1 0x24 DUP11 REVERT JUMPDEST SWAP5 PUSH1 0x7F AND SWAP5 PUSH3 0x83 JUMP JUMPDEST PUSH1 0x41 DUP5 PUSH4 0x4E487B71 PUSH1 0xE0 SHL PUSH1 0x0 MSTORE MSTORE PUSH1 0x24 PUSH1 0x0 REVERT JUMPDEST PUSH4 0x4E487B71 PUSH1 0xE0 SHL PUSH1 0x0 MSTORE PUSH1 0x41 PUSH1 0x4 MSTORE PUSH1 0x24 PUSH1 0x0 REVERT JUMPDEST PUSH1 0x0 DUP1 REVERT INVALID PUSH1 0x80 DUP1 PUSH1 0x40 MSTORE PUSH1 0x4 CALLDATASIZE LT ISZERO PUSH2 0x13 JUMPI PUSH1 0x0 DUP1 REVERT JUMPDEST PUSH1 0x0 CALLDATALOAD PUSH1 0xE0 SHR SWAP1 DUP2 PUSH4 0x1FFC9A7 EQ PUSH2 0x11C1 JUMPI POP DUP1 PUSH4 0x6FDDE03 EQ PUSH2 0x111E JUMPI DUP1 PUSH4 0x81812FC EQ PUSH2 0x10E0 JUMPI DUP1 PUSH4 0x95EA7B3 EQ PUSH2 0xFF9 JUMPI DUP1 PUSH4 0xAF47E14 EQ PUSH2 0xFAC JUMPI DUP1 PUSH4 0xDF4932D EQ PUSH2 0xF69 JUMPI DUP1 PUSH4 0x18160DDD EQ PUSH2 0xF4B JUMPI DUP1 PUSH4 0x23B872DD EQ PUSH2 0xF34 JUMPI DUP1 PUSH4 0x2B6E7EB4 EQ PUSH2 0xEE2 JUMPI DUP1 PUSH4 0x2F745C59 EQ PUSH2 0xEBB JUMPI DUP1 PUSH4 0x305248FB EQ PUSH2 0xE93 JUMPI DUP1 PUSH4 0x42842E0E EQ PUSH2 0xE65 JUMPI DUP1 PUSH4 0x4F6CCCE7 EQ PUSH2 0xE47 JUMPI DUP1 PUSH4 0x574CCBC6 EQ PUSH2 0xD5C JUMPI DUP1 PUSH4 0x5D26E8FA EQ PUSH2 0xCF5 JUMPI DUP1 PUSH4 0x6352211E EQ PUSH2 0xCC5 JUMPI DUP1 PUSH4 0x70A08231 EQ PUSH2 0xC9A JUMPI DUP1 PUSH4 0x715018A6 EQ PUSH2 0xC3D JUMPI DUP1 PUSH4 0x75794A3C EQ PUSH2 0xC1F JUMPI DUP1 PUSH4 0x8DA5CB5B EQ PUSH2 0xBF6 JUMPI DUP1 PUSH4 0x8F9C654C EQ PUSH2 0xBA1 JUMPI DUP1 PUSH4 0x95D89B41 EQ PUSH2 0xAC2 JUMPI DUP1 PUSH4 0xA22CB465 EQ PUSH2 0xA1D JUMPI DUP1 PUSH4 0xA833431A EQ PUSH2 0x95F JUMPI DUP1 PUSH4 0xB7B28EE8 EQ PUSH2 0x588 JUMPI DUP1 PUSH4 0xB88D4FDE EQ PUSH2 0x51A JUMPI DUP1 PUSH4 0xC87B56DD EQ PUSH2 0x4C3 JUMPI DUP1 PUSH4 0xC8B86C6D EQ PUSH2 0x252 JUMPI DUP1 PUSH4 0xE985E9C5 EQ PUSH2 0x1FC JUMPI PUSH4 0xF2FDE38B EQ PUSH2 0x169 JUMPI PUSH1 0x0 DUP1 REVERT JUMPDEST CALLVALUE PUSH2 0x1F7 JUMPI PUSH1 0x20 CALLDATASIZE PUSH1 0x3 NOT ADD SLT PUSH2 0x1F7 JUMPI PUSH2 0x182 PUSH2 0x1286 JUMP JUMPDEST PUSH2 0x18A PUSH2 0x13FA JUMP JUMPDEST PUSH1 0x1 PUSH1 0x1 PUSH1 0xA0 SHL SUB SWAP1 DUP2 AND SWAP1 DUP2 ISZERO PUSH2 0x1DE JUMPI PUSH1 0xA SLOAD DUP3 PUSH12 0xFFFFFFFFFFFFFFFFFFFFFFFF PUSH1 0xA0 SHL DUP3 AND OR PUSH1 0xA SSTORE AND PUSH32 0x8BE0079C531659141344CD1FD0A4F28419497F9722A3DAAFE3B4186F6B6457E0 PUSH1 0x0 DUP1 LOG3 STOP JUMPDEST PUSH1 0x40 MLOAD PUSH4 0x1E4FBDF7 PUSH1 0xE0 SHL DUP2 MSTORE PUSH1 0x0 PUSH1 0x4 DUP3 ADD MSTORE PUSH1 0x24 SWAP1 REVERT JUMPDEST PUSH1 0x0 DUP1 REVERT JUMPDEST CALLVALUE PUSH2 0x1F7 JUMPI PUSH1 0x40 CALLDATASIZE PUSH1 0x3 NOT ADD SLT PUSH2 0x1F7 JUMPI PUSH2 0x215 PUSH2 0x1286 JUMP JUMPDEST PUSH2 0x21D PUSH2 0x129C JUMP JUMPDEST SWAP1 PUSH1 0x1 DUP1 PUSH1 0xA0 SHL SUB DUP1 SWAP2 AND PUSH1 0x0 MSTORE PUSH1 0x5 PUSH1 0x20 MSTORE PUSH1 0x40 PUSH1 0x0 KECCAK256 SWAP2 AND PUSH1 0x0 MSTORE PUSH1 0x20 MSTORE PUSH1 0x20 PUSH1 0xFF PUSH1 0x40 PUSH1 0x0 KECCAK256 SLOAD AND PUSH1 0x40 MLOAD SWAP1 ISZERO ISZERO DUP2 MSTORE RETURN JUMPDEST PUSH1 0x20 DUP1 PUSH1 0x3 NOT CALLDATASIZE ADD SLT PUSH2 0x1F7 JUMPI PUSH1 0x4 CALLDATALOAD PUSH1 0x2 PUSH1 0xB SLOAD EQ PUSH2 0x4B1 JUMPI PUSH1 0x2 PUSH1 0xB SSTORE PUSH1 0x1 PUSH1 0x1 PUSH1 0xA0 SHL SUB PUSH2 0x28E DUP2 PUSH2 0x286 DUP5 PUSH2 0x1716 JUMP JUMPDEST AND ISZERO ISZERO PUSH2 0x1C0E JUMP JUMPDEST DUP2 PUSH1 0x0 MSTORE PUSH1 0xD DUP4 MSTORE PUSH1 0x40 PUSH1 0x0 KECCAK256 SWAP1 PUSH2 0x2A5 DUP4 PUSH2 0x1716 JUMP JUMPDEST SWAP1 PUSH1 0x3 DUP4 ADD SWAP3 DUP4 SLOAD SWAP1 PUSH1 0xFF DUP3 AND PUSH1 0x3 DUP2 LT ISZERO PUSH2 0x49B JUMPI PUSH1 0x1 EQ PUSH2 0x456 JUMPI PUSH1 0x1 ADD SWAP4 DUP5 SLOAD CALLVALUE LT PUSH2 0x41C JUMPI DUP3 DUP5 AND SWAP2 CALLER DUP4 EQ PUSH2 0x3E5 JUMPI PUSH1 0xFF NOT AND PUSH1 0x1 OR SWAP1 SSTORE PUSH1 0x0 DUP1 DUP1 DUP1 CALLVALUE DUP6 GAS CALL PUSH2 0x2F3 PUSH2 0x1ABF JUMP JUMPDEST POP ISZERO PUSH2 0x3AE JUMPI CALLER ISZERO PUSH2 0x395 JUMPI PUSH2 0x309 DUP6 CALLER PUSH2 0x183A JUMP JUMPDEST SWAP2 DUP3 AND DUP1 PUSH2 0x32A JUMPI PUSH1 0x40 MLOAD PUSH4 0x7E273289 PUSH1 0xE0 SHL DUP2 MSTORE PUSH1 0x4 DUP2 ADD DUP8 SWAP1 MSTORE PUSH1 0x24 SWAP1 REVERT JUMPDEST SUB PUSH2 0x364 JUMPI POP POP SLOAD PUSH1 0x40 MLOAD SWAP1 DUP2 MSTORE CALLER SWAP3 PUSH32 0x9E589EFCB0CC842EDCA0193136EC83DAE8949CA5493AEF39B6C71D45B0DC99DB SWAP2 LOG3 PUSH1 0x1 PUSH1 0xB SSTORE STOP JUMPDEST PUSH1 0x40 MLOAD PUSH4 0x64283D7B PUSH1 0xE0 SHL DUP2 MSTORE PUSH1 0x1 PUSH1 0x1 PUSH1 0xA0 SHL SUB SWAP3 DUP4 AND PUSH1 0x4 DUP3 ADD MSTORE PUSH1 0x24 DUP2 ADD SWAP5 SWAP1 SWAP5 MSTORE AND PUSH1 0x44 DUP4 ADD MSTORE POP PUSH1 0x64 SWAP1 REVERT JUMPDEST PUSH1 0x40 MLOAD PUSH4 0x32505749 PUSH1 0xE1 SHL DUP2 MSTORE PUSH1 0x0 PUSH1 0x4 DUP3 ADD MSTORE PUSH1 0x24 SWAP1 REVERT JUMPDEST PUSH1 0x40 MLOAD PUSH3 0x461BCD PUSH1 0xE5 SHL DUP2 MSTORE PUSH1 0x4 DUP2 ADD DUP8 SWAP1 MSTORE PUSH1 0xF PUSH1 0x24 DUP3 ADD MSTORE PUSH15 0x151C985B9CD9995C8819985A5B1959 PUSH1 0x8A SHL PUSH1 0x44 DUP3 ADD MSTORE PUSH1 0x64 SWAP1 REVERT JUMPDEST PUSH1 0x40 MLOAD PUSH3 0x461BCD PUSH1 0xE5 SHL DUP2 MSTORE PUSH1 0x4 DUP2 ADD DUP10 SWAP1 MSTORE PUSH1 0xF PUSH1 0x24 DUP3 ADD MSTORE PUSH15 0x566F6365206A6120656820646F6E6F PUSH1 0x88 SHL PUSH1 0x44 DUP3 ADD MSTORE PUSH1 0x64 SWAP1 REVERT JUMPDEST PUSH1 0x40 MLOAD PUSH3 0x461BCD PUSH1 0xE5 SHL DUP2 MSTORE PUSH1 0x4 DUP2 ADD DUP9 SWAP1 MSTORE PUSH1 0x12 PUSH1 0x24 DUP3 ADD MSTORE PUSH18 0x56616C6F7220696E737566696369656E7465 PUSH1 0x70 SHL PUSH1 0x44 DUP3 ADD MSTORE PUSH1 0x64 SWAP1 REVERT JUMPDEST PUSH1 0x40 MLOAD PUSH3 0x461BCD PUSH1 0xE5 SHL DUP2 MSTORE PUSH1 0x4 DUP2 ADD DUP9 SWAP1 MSTORE PUSH1 0x19 PUSH1 0x24 DUP3 ADD MSTORE PUSH32 0x496E67726573736F206E616F206573746120612076656E646100000000000000 PUSH1 0x44 DUP3 ADD MSTORE PUSH1 0x64 SWAP1 REVERT JUMPDEST PUSH4 0x4E487B71 PUSH1 0xE0 SHL PUSH1 0x0 MSTORE PUSH1 0x21 PUSH1 0x4 MSTORE PUSH1 0x24 PUSH1 0x0 REVERT JUMPDEST PUSH1 0x40 MLOAD PUSH4 0x3EE5AEB5 PUSH1 0xE0 SHL DUP2 MSTORE PUSH1 0x4 SWAP1 REVERT JUMPDEST CALLVALUE PUSH2 0x1F7 JUMPI PUSH1 0x20 CALLDATASIZE PUSH1 0x3 NOT ADD SLT PUSH2 0x1F7 JUMPI PUSH2 0x4DF PUSH1 0x4 CALLDATALOAD PUSH2 0x1716 JUMP JUMPDEST POP PUSH1 0x0 PUSH1 0x40 MLOAD PUSH2 0x4EE DUP2 PUSH2 0x1369 JUMP JUMPDEST MSTORE PUSH2 0x516 PUSH1 0x40 MLOAD PUSH2 0x4FE DUP2 PUSH2 0x1369 JUMP JUMPDEST PUSH1 0x0 DUP2 MSTORE PUSH1 0x40 MLOAD SWAP2 DUP3 SWAP2 PUSH1 0x20 DUP4 MSTORE PUSH1 0x20 DUP4 ADD SWAP1 PUSH2 0x1246 JUMP JUMPDEST SUB SWAP1 RETURN JUMPDEST CALLVALUE PUSH2 0x1F7 JUMPI PUSH1 0x80 CALLDATASIZE PUSH1 0x3 NOT ADD SLT PUSH2 0x1F7 JUMPI PUSH2 0x533 PUSH2 0x1286 JUMP JUMPDEST PUSH2 0x53B PUSH2 0x129C JUMP JUMPDEST SWAP1 PUSH1 0x44 CALLDATALOAD PUSH1 0x64 CALLDATALOAD SWAP3 PUSH8 0xFFFFFFFFFFFFFFFF DUP5 GT PUSH2 0x1F7 JUMPI CALLDATASIZE PUSH1 0x23 DUP6 ADD SLT ISZERO PUSH2 0x1F7 JUMPI PUSH2 0x574 PUSH2 0x586 SWAP5 CALLDATASIZE SWAP1 PUSH1 0x24 DUP2 PUSH1 0x4 ADD CALLDATALOAD SWAP2 ADD PUSH2 0x13C3 JUMP JUMPDEST SWAP3 PUSH2 0x580 DUP4 DUP4 DUP4 PUSH2 0x145F JUMP JUMPDEST CALLER PUSH2 0x1AEF JUMP JUMPDEST STOP JUMPDEST CALLVALUE PUSH2 0x1F7 JUMPI PUSH1 0x60 CALLDATASIZE PUSH1 0x3 NOT ADD SLT PUSH2 0x1F7 JUMPI PUSH8 0xFFFFFFFFFFFFFFFF PUSH1 0x4 CALLDATALOAD DUP2 DUP2 GT PUSH2 0x1F7 JUMPI CALLDATASIZE PUSH1 0x23 DUP3 ADD SLT ISZERO PUSH2 0x1F7 JUMPI PUSH2 0x5CB SWAP1 CALLDATASIZE SWAP1 PUSH1 0x24 DUP2 PUSH1 0x4 ADD CALLDATALOAD SWAP2 ADD PUSH2 0x13C3 JUMP JUMPDEST SWAP1 PUSH2 0x5D4 PUSH2 0x13FA JUMP JUMPDEST TIMESTAMP PUSH1 0x44 CALLDATALOAD GT ISZERO PUSH2 0x91A JUMPI PUSH1 0xC SLOAD SWAP1 PUSH2 0x5EB DUP3 PUSH2 0x1BD1 JUMP JUMPDEST PUSH1 0xC SSTORE PUSH1 0xA SLOAD PUSH1 0x40 MLOAD PUSH1 0x1 PUSH1 0x1 PUSH1 0xA0 SHL SUB SWAP2 DUP3 AND SWAP5 SWAP2 PUSH2 0x60A DUP3 PUSH2 0x1369 JUMP JUMPDEST PUSH1 0x0 DUP3 MSTORE DUP6 ISZERO PUSH2 0x395 JUMPI PUSH2 0x61E DUP6 DUP8 PUSH2 0x183A JUMP JUMPDEST AND PUSH2 0x901 JUMPI DUP5 EXTCODESIZE PUSH2 0x807 JUMPI JUMPDEST POP SWAP1 SWAP2 SWAP3 POP PUSH1 0x40 MLOAD PUSH1 0x80 DUP2 ADD DUP2 DUP2 LT DUP5 DUP3 GT OR PUSH2 0x7F1 JUMPI PUSH1 0x40 MSTORE DUP2 DUP2 MSTORE PUSH1 0x24 CALLDATALOAD PUSH1 0x20 DUP3 ADD MSTORE PUSH1 0x44 CALLDATALOAD PUSH1 0x40 DUP3 ADD MSTORE PUSH1 0x0 PUSH1 0x60 DUP3 ADD MSTORE DUP4 PUSH1 0x0 MSTORE PUSH1 0xD PUSH1 0x20 MSTORE PUSH1 0x40 PUSH1 0x0 KECCAK256 SWAP3 DUP2 MLOAD DUP1 MLOAD SWAP2 DUP3 GT PUSH2 0x7F1 JUMPI PUSH2 0x682 DUP6 SLOAD PUSH2 0x132F JUMP JUMPDEST PUSH1 0x1F DUP2 GT PUSH2 0x7AD JUMPI JUMPDEST POP PUSH1 0x20 SWAP1 PUSH1 0x1F DUP4 GT PUSH1 0x1 EQ PUSH2 0x742 JUMPI PUSH1 0x60 SWAP4 SWAP3 SWAP2 PUSH1 0x0 SWAP2 DUP4 PUSH2 0x737 JUMPI JUMPDEST POP POP DUP2 PUSH1 0x1 SHL SWAP2 PUSH1 0x0 NOT SWAP1 PUSH1 0x3 SHL SHR NOT AND OR DUP5 SSTORE JUMPDEST PUSH1 0x20 DUP2 ADD MLOAD PUSH1 0x1 DUP6 ADD SSTORE PUSH1 0x40 DUP2 ADD MLOAD PUSH1 0x2 DUP6 ADD SSTORE ADD MLOAD SWAP1 PUSH1 0x3 DUP3 LT ISZERO PUSH2 0x49B JUMPI PUSH2 0x70E PUSH2 0x722 SWAP3 PUSH1 0x3 PUSH32 0x6F818ADB419E049450D1D43CE9A84DB8F23FE2AD514723541AB7BF9684CDB666 SWAP6 ADD PUSH2 0x1BF6 JUMP JUMPDEST PUSH1 0x40 MLOAD SWAP2 DUP3 SWAP2 PUSH1 0x60 DUP4 MSTORE PUSH1 0x60 DUP4 ADD SWAP1 PUSH2 0x1246 JUMP JUMPDEST PUSH1 0x24 CALLDATALOAD PUSH1 0x20 DUP4 ADD MSTORE PUSH1 0x44 CALLDATALOAD PUSH1 0x40 DUP4 ADD MSTORE SUB SWAP1 LOG2 STOP JUMPDEST ADD MLOAD SWAP1 POP DUP8 DUP1 PUSH2 0x6A8 JUMP JUMPDEST SWAP1 PUSH1 0x1F NOT DUP4 AND SWAP2 DUP7 PUSH1 0x0 MSTORE PUSH1 0x20 PUSH1 0x0 KECCAK256 SWAP3 PUSH1 0x0 JUMPDEST DUP2 DUP2 LT PUSH2 0x795 JUMPI POP SWAP2 PUSH1 0x1 SWAP4 SWAP2 DUP6 PUSH1 0x60 SWAP8 SWAP7 SWAP5 LT PUSH2 0x77C JUMPI JUMPDEST POP POP POP DUP2 SHL ADD DUP5 SSTORE PUSH2 0x6BD JUMP JUMPDEST ADD MLOAD PUSH1 0x0 NOT PUSH1 0xF8 DUP5 PUSH1 0x3 SHL AND SHR NOT AND SWAP1 SSTORE DUP8 DUP1 DUP1 PUSH2 0x76F JUMP JUMPDEST SWAP3 SWAP4 PUSH1 0x20 PUSH1 0x1 DUP2 SWAP3 DUP8 DUP7 ADD MLOAD DUP2 SSTORE ADD SWAP6 ADD SWAP4 ADD PUSH2 0x756 JUMP JUMPDEST DUP6 PUSH1 0x0 MSTORE PUSH1 0x20 PUSH1 0x0 KECCAK256 PUSH1 0x1F DUP5 ADD PUSH1 0x5 SHR DUP2 ADD PUSH1 0x20 DUP6 LT PUSH2 0x7EA JUMPI JUMPDEST PUSH1 0x1F DUP4 ADD PUSH1 0x5 SHR DUP3 ADD DUP2 LT PUSH2 0x7DE JUMPI POP POP PUSH2 0x68B JUMP JUMPDEST PUSH1 0x0 DUP2 SSTORE PUSH1 0x1 ADD PUSH2 0x7C8 JUMP JUMPDEST POP DUP1 PUSH2 0x7C8 JUMP JUMPDEST PUSH4 0x4E487B71 PUSH1 0xE0 SHL PUSH1 0x0 MSTORE PUSH1 0x41 PUSH1 0x4 MSTORE PUSH1 0x24 PUSH1 0x0 REVERT JUMPDEST PUSH1 0x40 MLOAD PUSH1 0x20 DUP2 DUP1 PUSH2 0x841 PUSH4 0xA85BD01 PUSH1 0xE1 SHL SWAP6 DUP7 DUP4 MSTORE CALLER PUSH1 0x4 DUP5 ADD MSTORE PUSH1 0x0 PUSH1 0x24 DUP5 ADD MSTORE DUP10 PUSH1 0x44 DUP5 ADD MSTORE PUSH1 0x80 PUSH1 0x64 DUP5 ADD MSTORE PUSH1 0x84 DUP4 ADD SWAP1 PUSH2 0x1246 JUMP JUMPDEST SUB DUP2 PUSH1 0x0 DUP11 GAS CALL PUSH1 0x0 SWAP2 DUP2 PUSH2 0x8BD JUMPI JUMPDEST POP PUSH2 0x888 JUMPI DUP6 PUSH2 0x85F PUSH2 0x1ABF JUMP JUMPDEST DUP1 MLOAD SWAP2 SWAP1 DUP3 PUSH2 0x881 JUMPI PUSH1 0x40 MLOAD PUSH4 0x32505749 PUSH1 0xE1 SHL DUP2 MSTORE PUSH1 0x4 DUP2 ADD DUP4 SWAP1 MSTORE PUSH1 0x24 SWAP1 REVERT JUMPDEST PUSH1 0x20 SWAP2 POP ADD REVERT JUMPDEST PUSH4 0xFFFFFFFF PUSH1 0xE0 SWAP7 SWAP4 SWAP5 SWAP6 SWAP7 SHL AND SUB PUSH2 0x8A5 JUMPI POP SWAP1 DUP3 SWAP2 DUP5 PUSH2 0x62A JUMP JUMPDEST PUSH1 0x24 SWAP1 PUSH1 0x40 MLOAD SWAP1 PUSH4 0x32505749 PUSH1 0xE1 SHL DUP3 MSTORE PUSH1 0x4 DUP3 ADD MSTORE REVERT JUMPDEST SWAP1 SWAP2 POP PUSH1 0x20 DUP2 RETURNDATASIZE DUP3 GT PUSH2 0x8F9 JUMPI JUMPDEST DUP2 PUSH2 0x8D8 PUSH1 0x20 SWAP4 DUP4 PUSH2 0x1385 JUMP JUMPDEST DUP2 ADD SUB SLT PUSH2 0x1F7 JUMPI MLOAD PUSH1 0x1 PUSH1 0x1 PUSH1 0xE0 SHL SUB NOT DUP2 AND DUP2 SUB PUSH2 0x1F7 JUMPI SWAP1 DUP8 PUSH2 0x851 JUMP JUMPDEST RETURNDATASIZE SWAP2 POP PUSH2 0x8CB JUMP JUMPDEST PUSH1 0x40 MLOAD PUSH4 0x39E35637 PUSH1 0xE1 SHL DUP2 MSTORE PUSH1 0x0 PUSH1 0x4 DUP3 ADD MSTORE PUSH1 0x24 SWAP1 REVERT JUMPDEST PUSH1 0x40 MLOAD PUSH3 0x461BCD PUSH1 0xE5 SHL DUP2 MSTORE PUSH1 0x20 PUSH1 0x4 DUP3 ADD MSTORE PUSH1 0x1E PUSH1 0x24 DUP3 ADD MSTORE PUSH32 0x4461746120646F206576656E746F206465766520736572206675747572610000 PUSH1 0x44 DUP3 ADD MSTORE PUSH1 0x64 SWAP1 REVERT JUMPDEST CALLVALUE PUSH2 0x1F7 JUMPI PUSH1 0x40 CALLDATASIZE PUSH1 0x3 NOT ADD SLT PUSH2 0x1F7 JUMPI PUSH1 0x4 CALLDATALOAD PUSH1 0x24 CALLDATALOAD PUSH1 0x1 PUSH1 0x1 PUSH1 0xA0 SHL SUB PUSH2 0x98B DUP2 PUSH2 0x286 DUP6 PUSH2 0x1716 JUMP JUMPDEST PUSH2 0x994 DUP4 PUSH2 0x1716 JUMP JUMPDEST CALLER SWAP2 AND SUB PUSH2 0x9EA JUMPI PUSH1 0x20 PUSH32 0x8BE115FFE66EF5771884B3F15CE409BD9EEDF70AD2538FE809527531E2545E05 SWAP2 DUP4 PUSH1 0x0 MSTORE PUSH1 0xD DUP3 MSTORE PUSH1 0x3 PUSH1 0x40 PUSH1 0x0 KECCAK256 DUP3 PUSH1 0x1 DUP3 ADD SSTORE ADD PUSH1 0x2 PUSH1 0xFF NOT DUP3 SLOAD AND OR SWAP1 SSTORE PUSH1 0x40 MLOAD SWAP1 DUP2 MSTORE LOG2 STOP JUMPDEST PUSH1 0x40 MLOAD PUSH3 0x461BCD PUSH1 0xE5 SHL DUP2 MSTORE PUSH1 0x20 PUSH1 0x4 DUP3 ADD MSTORE PUSH1 0xB PUSH1 0x24 DUP3 ADD MSTORE PUSH11 0x4E616F20656820646F6E6F PUSH1 0xA8 SHL PUSH1 0x44 DUP3 ADD MSTORE PUSH1 0x64 SWAP1 REVERT JUMPDEST CALLVALUE PUSH2 0x1F7 JUMPI PUSH1 0x40 CALLDATASIZE PUSH1 0x3 NOT ADD SLT PUSH2 0x1F7 JUMPI PUSH2 0xA36 PUSH2 0x1286 JUMP JUMPDEST PUSH1 0x24 CALLDATALOAD SWAP1 DUP2 ISZERO ISZERO DUP1 SWAP3 SUB PUSH2 0x1F7 JUMPI PUSH1 0x1 PUSH1 0x1 PUSH1 0xA0 SHL SUB AND SWAP1 DUP2 ISZERO PUSH2 0xAA9 JUMPI CALLER PUSH1 0x0 MSTORE PUSH1 0x5 PUSH1 0x20 MSTORE PUSH1 0x40 PUSH1 0x0 KECCAK256 DUP3 PUSH1 0x0 MSTORE PUSH1 0x20 MSTORE PUSH1 0x40 PUSH1 0x0 KECCAK256 PUSH1 0xFF NOT DUP2 SLOAD AND PUSH1 0xFF DUP4 AND OR SWAP1 SSTORE PUSH1 0x40 MLOAD SWAP1 DUP2 MSTORE PUSH32 0x17307EAB39AB6107E8899845AD3D59BD9653F200F220920489CA2B5937696C31 PUSH1 0x20 CALLER SWAP3 LOG3 STOP JUMPDEST PUSH1 0x40 MLOAD PUSH4 0xB611743 PUSH1 0xE3 SHL DUP2 MSTORE PUSH1 0x4 DUP2 ADD DUP4 SWAP1 MSTORE PUSH1 0x24 SWAP1 REVERT JUMPDEST CALLVALUE PUSH2 0x1F7 JUMPI PUSH1 0x0 CALLDATASIZE PUSH1 0x3 NOT ADD SLT PUSH2 0x1F7 JUMPI PUSH1 0x40 MLOAD PUSH1 0x0 PUSH1 0x1 DUP1 SLOAD SWAP1 PUSH2 0xAE6 DUP3 PUSH2 0x132F JUMP JUMPDEST DUP1 DUP6 MSTORE SWAP2 DUP2 DUP2 AND SWAP1 DUP2 ISZERO PUSH2 0xB7A JUMPI POP PUSH1 0x1 EQ PUSH2 0xB21 JUMPI JUMPDEST PUSH2 0x516 DUP5 PUSH2 0xB0D DUP2 DUP7 SUB DUP3 PUSH2 0x1385 JUMP JUMPDEST PUSH1 0x40 MLOAD SWAP2 DUP3 SWAP2 PUSH1 0x20 DUP4 MSTORE PUSH1 0x20 DUP4 ADD SWAP1 PUSH2 0x1246 JUMP JUMPDEST PUSH1 0x0 DUP2 DUP2 MSTORE SWAP3 POP PUSH32 0xB10E2D527612073B26EECDFD717E6A320CF44B4AFAC2B0732D9FCBE2B7FA0CF6 JUMPDEST DUP3 DUP5 LT PUSH2 0xB62 JUMPI POP POP POP DUP2 ADD PUSH1 0x20 ADD PUSH2 0xB0D DUP3 PUSH2 0xAFD JUMP JUMPDEST DUP1 SLOAD PUSH1 0x20 DUP6 DUP8 ADD DUP2 ADD SWAP2 SWAP1 SWAP2 MSTORE SWAP1 SWAP4 ADD SWAP3 DUP2 ADD PUSH2 0xB4A JUMP JUMPDEST PUSH1 0xFF NOT AND PUSH1 0x20 DUP1 DUP8 ADD SWAP2 SWAP1 SWAP2 MSTORE SWAP3 ISZERO ISZERO PUSH1 0x5 SHL DUP6 ADD SWAP1 SWAP3 ADD SWAP3 POP PUSH2 0xB0D SWAP2 POP DUP4 SWAP1 POP PUSH2 0xAFD JUMP JUMPDEST CALLVALUE PUSH2 0x1F7 JUMPI PUSH1 0x40 CALLDATASIZE PUSH1 0x3 NOT ADD SLT PUSH2 0x1F7 JUMPI PUSH1 0x4 CALLDATALOAD PUSH1 0x24 CALLDATALOAD PUSH1 0x3 DUP2 LT ISZERO PUSH2 0x1F7 JUMPI PUSH2 0x586 SWAP2 PUSH2 0xBCD PUSH2 0x13FA JUMP JUMPDEST PUSH2 0xBE1 PUSH1 0x1 PUSH1 0x1 PUSH1 0xA0 SHL SUB PUSH2 0x286 DUP4 PUSH2 0x1716 JUMP JUMPDEST PUSH1 0x0 MSTORE PUSH1 0xD PUSH1 0x20 MSTORE PUSH1 0x3 PUSH1 0x40 PUSH1 0x0 KECCAK256 ADD PUSH2 0x1BF6 JUMP JUMPDEST CALLVALUE PUSH2 0x1F7 JUMPI PUSH1 0x0 CALLDATASIZE PUSH1 0x3 NOT ADD SLT PUSH2 0x1F7 JUMPI PUSH1 0xA SLOAD PUSH1 0x40 MLOAD PUSH1 0x1 PUSH1 0x1 PUSH1 0xA0 SHL SUB SWAP1 SWAP2 AND DUP2 MSTORE PUSH1 0x20 SWAP1 RETURN JUMPDEST CALLVALUE PUSH2 0x1F7 JUMPI PUSH1 0x0 CALLDATASIZE PUSH1 0x3 NOT ADD SLT PUSH2 0x1F7 JUMPI PUSH1 0x20 PUSH1 0xC SLOAD PUSH1 0x40 MLOAD SWAP1 DUP2 MSTORE RETURN JUMPDEST CALLVALUE PUSH2 0x1F7 JUMPI PUSH1 0x0 CALLDATASIZE PUSH1 0x3 NOT ADD SLT PUSH2 0x1F7 JUMPI PUSH2 0xC56 PUSH2 0x13FA JUMP JUMPDEST PUSH1 0xA DUP1 SLOAD PUSH1 0x1 PUSH1 0x1 PUSH1 0xA0 SHL SUB NOT DUP2 AND SWAP1 SWAP2 SSTORE PUSH1 0x0 SWAP1 PUSH1 0x1 PUSH1 0x1 PUSH1 0xA0 SHL SUB AND PUSH32 0x8BE0079C531659141344CD1FD0A4F28419497F9722A3DAAFE3B4186F6B6457E0 DUP3 DUP1 LOG3 STOP JUMPDEST CALLVALUE PUSH2 0x1F7 JUMPI PUSH1 0x20 CALLDATASIZE PUSH1 0x3 NOT ADD SLT PUSH2 0x1F7 JUMPI PUSH1 0x20 PUSH2 0xCBD PUSH2 0xCB8 PUSH2 0x1286 JUMP JUMPDEST PUSH2 0x1426 JUMP JUMPDEST PUSH1 0x40 MLOAD SWAP1 DUP2 MSTORE RETURN JUMPDEST CALLVALUE PUSH2 0x1F7 JUMPI PUSH1 0x20 CALLDATASIZE PUSH1 0x3 NOT ADD SLT PUSH2 0x1F7 JUMPI PUSH1 0x20 PUSH2 0xCE3 PUSH1 0x4 CALLDATALOAD PUSH2 0x1716 JUMP JUMPDEST PUSH1 0x40 MLOAD PUSH1 0x1 PUSH1 0x1 PUSH1 0xA0 SHL SUB SWAP1 SWAP2 AND DUP2 MSTORE RETURN JUMPDEST CALLVALUE PUSH2 0x1F7 JUMPI PUSH1 0x20 CALLDATASIZE PUSH1 0x3 NOT ADD SLT PUSH2 0x1F7 JUMPI PUSH2 0xD0E PUSH2 0x1286 JUMP JUMPDEST PUSH2 0xD17 DUP2 PUSH2 0x1426 JUMP JUMPDEST PUSH2 0xD20 DUP2 PUSH2 0x1CD9 JUMP JUMPDEST SWAP2 PUSH1 0x0 JUMPDEST DUP3 DUP2 LT PUSH2 0xD39 JUMPI PUSH1 0x40 MLOAD DUP1 PUSH2 0x516 DUP7 DUP3 PUSH2 0x12F4 JUMP JUMPDEST DUP1 PUSH2 0xD47 PUSH2 0xD57 SWAP3 DUP5 PUSH2 0x1751 JUMP JUMPDEST PUSH2 0xD51 DUP3 DUP8 PUSH2 0x1D0B JUMP JUMPDEST MSTORE PUSH2 0x1BD1 JUMP JUMPDEST PUSH2 0xD24 JUMP JUMPDEST CALLVALUE PUSH2 0x1F7 JUMPI PUSH1 0x20 DUP1 PUSH1 0x3 NOT CALLDATASIZE ADD SLT PUSH2 0x1F7 JUMPI PUSH1 0x4 CALLDATALOAD PUSH1 0x0 MSTORE PUSH1 0xD DUP2 MSTORE PUSH1 0x40 PUSH1 0x0 KECCAK256 PUSH1 0x40 MLOAD SWAP1 PUSH1 0x0 DUP2 SLOAD SWAP1 PUSH2 0xD8F DUP3 PUSH2 0x132F JUMP JUMPDEST DUP1 DUP6 MSTORE PUSH1 0x1 SWAP3 DUP1 DUP5 AND SWAP1 DUP2 ISZERO PUSH2 0xE2B JUMPI POP PUSH1 0x1 EQ PUSH2 0xDF7 JUMPI JUMPDEST POP SWAP2 PUSH2 0x516 SWAP2 PUSH2 0xDBE DUP6 PUSH2 0xDE4 SWAP8 SWAP6 SUB DUP7 PUSH2 0x1385 JUMP JUMPDEST DUP2 ADD SLOAD SWAP1 PUSH1 0xFF PUSH1 0x3 PUSH1 0x2 DUP4 ADD SLOAD SWAP3 ADD SLOAD AND SWAP2 PUSH1 0x40 MLOAD SWAP7 DUP8 SWAP7 PUSH1 0x80 DUP9 MSTORE PUSH1 0x80 DUP9 ADD SWAP1 PUSH2 0x1246 JUMP JUMPDEST SWAP5 DUP7 ADD MSTORE PUSH1 0x40 DUP6 ADD MSTORE PUSH1 0x60 DUP5 ADD SWAP1 PUSH2 0x12B2 JUMP JUMPDEST PUSH1 0x0 DUP5 DUP2 MSTORE DUP7 DUP2 KECCAK256 SWAP1 SWAP3 POP JUMPDEST DUP2 DUP4 LT PUSH2 0xE18 JUMPI POP POP DUP4 ADD DUP5 ADD PUSH2 0x516 PUSH2 0xDA8 JUMP JUMPDEST DUP1 SLOAD DUP7 DUP5 ADD DUP9 ADD MSTORE SWAP2 DUP7 ADD SWAP2 DUP4 ADD PUSH2 0xE03 JUMP JUMPDEST PUSH1 0xFF NOT AND DUP7 DUP9 ADD MSTORE POP ISZERO ISZERO PUSH1 0x5 SHL DUP5 ADD DUP6 ADD SWAP1 POP PUSH2 0x516 PUSH2 0xDA8 JUMP JUMPDEST CALLVALUE PUSH2 0x1F7 JUMPI PUSH1 0x20 CALLDATASIZE PUSH1 0x3 NOT ADD SLT PUSH2 0x1F7 JUMPI PUSH1 0x20 PUSH2 0xCBD PUSH1 0x4 CALLDATALOAD PUSH2 0x17FE JUMP JUMPDEST CALLVALUE PUSH2 0x1F7 JUMPI PUSH2 0x586 PUSH2 0xE76 CALLDATASIZE PUSH2 0x12BF JUMP JUMPDEST SWAP1 PUSH1 0x40 MLOAD SWAP3 PUSH2 0xE84 DUP5 PUSH2 0x1369 JUMP JUMPDEST PUSH1 0x0 DUP5 MSTORE PUSH2 0x580 DUP4 DUP4 DUP4 PUSH2 0x145F JUMP JUMPDEST CALLVALUE PUSH2 0x1F7 JUMPI PUSH1 0x20 CALLDATASIZE PUSH1 0x3 NOT ADD SLT PUSH2 0x1F7 JUMPI PUSH1 0x20 PUSH2 0xEB1 PUSH1 0x4 CALLDATALOAD PUSH2 0x1C51 JUMP JUMPDEST PUSH1 0x40 MLOAD SWAP1 ISZERO ISZERO DUP2 MSTORE RETURN JUMPDEST CALLVALUE PUSH2 0x1F7 JUMPI PUSH1 0x40 CALLDATASIZE PUSH1 0x3 NOT ADD SLT PUSH2 0x1F7 JUMPI PUSH1 0x20 PUSH2 0xCBD PUSH2 0xED9 PUSH2 0x1286 JUMP JUMPDEST PUSH1 0x24 CALLDATALOAD SWAP1 PUSH2 0x1751 JUMP JUMPDEST CALLVALUE PUSH2 0x1F7 JUMPI PUSH1 0x0 CALLDATASIZE PUSH1 0x3 NOT ADD SLT PUSH2 0x1F7 JUMPI PUSH1 0x8 SLOAD PUSH2 0xEFF DUP2 PUSH2 0x1CD9 JUMP JUMPDEST SWAP1 PUSH1 0x0 JUMPDEST DUP2 DUP2 LT PUSH2 0xF18 JUMPI PUSH1 0x40 MLOAD DUP1 PUSH2 0x516 DUP6 DUP3 PUSH2 0x12F4 JUMP JUMPDEST DUP1 PUSH2 0xF25 PUSH2 0xF2F SWAP3 PUSH2 0x17FE JUMP JUMPDEST PUSH2 0xD51 DUP3 DUP7 PUSH2 0x1D0B JUMP JUMPDEST PUSH2 0xF03 JUMP JUMPDEST CALLVALUE PUSH2 0x1F7 JUMPI PUSH2 0x586 PUSH2 0xF45 CALLDATASIZE PUSH2 0x12BF JUMP JUMPDEST SWAP2 PUSH2 0x145F JUMP JUMPDEST CALLVALUE PUSH2 0x1F7 JUMPI PUSH1 0x0 CALLDATASIZE PUSH1 0x3 NOT ADD SLT PUSH2 0x1F7 JUMPI PUSH1 0x20 PUSH1 0x8 SLOAD PUSH1 0x40 MLOAD SWAP1 DUP2 MSTORE RETURN JUMPDEST CALLVALUE PUSH2 0x1F7 JUMPI PUSH1 0x20 CALLDATASIZE PUSH1 0x3 NOT ADD SLT PUSH2 0x1F7 JUMPI PUSH1 0x4 CALLDATALOAD PUSH2 0xF91 PUSH1 0x1 PUSH1 0x1 PUSH1 0xA0 SHL SUB PUSH2 0x286 DUP4 PUSH2 0x1716 JUMP JUMPDEST PUSH1 0x0 MSTORE PUSH1 0xD PUSH1 0x20 MSTORE PUSH1 0x20 PUSH1 0x2 PUSH1 0x40 PUSH1 0x0 KECCAK256 ADD SLOAD PUSH1 0x40 MLOAD SWAP1 DUP2 MSTORE RETURN JUMPDEST CALLVALUE PUSH2 0x1F7 JUMPI PUSH1 0x20 CALLDATASIZE PUSH1 0x3 NOT ADD SLT PUSH2 0x1F7 JUMPI PUSH1 0x4 CALLDATALOAD PUSH2 0xFD4 PUSH1 0x1 PUSH1 0x1 PUSH1 0xA0 SHL SUB PUSH2 0x286 DUP4 PUSH2 0x1716 JUMP JUMPDEST PUSH1 0x0 MSTORE PUSH1 0xD PUSH1 0x20 MSTORE PUSH1 0x20 PUSH1 0xFF PUSH1 0x3 PUSH1 0x40 PUSH1 0x0 KECCAK256 ADD SLOAD AND PUSH2 0xFF7 PUSH1 0x40 MLOAD DUP1 SWAP3 PUSH2 0x12B2 JUMP JUMPDEST RETURN JUMPDEST CALLVALUE PUSH2 0x1F7 JUMPI PUSH1 0x40 CALLDATASIZE PUSH1 0x3 NOT ADD SLT PUSH2 0x1F7 JUMPI PUSH2 0x1012 PUSH2 0x1286 JUMP JUMPDEST PUSH1 0x24 CALLDATALOAD PUSH2 0x101E DUP2 PUSH2 0x1716 JUMP JUMPDEST CALLER ISZERO ISZERO DUP1 PUSH2 0x10CD JUMPI JUMPDEST DUP1 PUSH2 0x10A0 JUMPI JUMPDEST PUSH2 0x1088 JUMPI PUSH1 0x1 PUSH1 0x1 PUSH1 0xA0 SHL SUB SWAP3 DUP4 AND SWAP3 DUP3 SWAP2 DUP5 SWAP2 AND PUSH32 0x8C5BE1E5EBEC7D5BD14F71427D1E84F3DD0314C0F7B2291E5B200AC8C7C3B925 PUSH1 0x0 DUP1 LOG4 PUSH1 0x0 SWAP1 DUP2 MSTORE PUSH1 0x4 PUSH1 0x20 MSTORE PUSH1 0x40 SWAP1 KECCAK256 DUP1 SLOAD PUSH1 0x1 PUSH1 0x1 PUSH1 0xA0 SHL SUB NOT AND SWAP1 SWAP2 OR SWAP1 SSTORE STOP JUMPDEST PUSH1 0x40 MLOAD PUSH4 0xA9FBF51F PUSH1 0xE0 SHL DUP2 MSTORE CALLER PUSH1 0x4 DUP3 ADD MSTORE PUSH1 0x24 SWAP1 REVERT JUMPDEST POP PUSH1 0x1 DUP1 PUSH1 0xA0 SHL SUB DUP2 AND PUSH1 0x0 MSTORE PUSH1 0x5 PUSH1 0x20 MSTORE PUSH1 0x40 PUSH1 0x0 KECCAK256 CALLER PUSH1 0x0 MSTORE PUSH1 0x20 MSTORE PUSH1 0xFF PUSH1 0x40 PUSH1 0x0 KECCAK256 SLOAD AND ISZERO PUSH2 0x102D JUMP JUMPDEST POP PUSH1 0x1 PUSH1 0x1 PUSH1 0xA0 SHL SUB DUP2 AND CALLER EQ ISZERO PUSH2 0x1027 JUMP JUMPDEST CALLVALUE PUSH2 0x1F7 JUMPI PUSH1 0x20 CALLDATASIZE PUSH1 0x3 NOT ADD SLT PUSH2 0x1F7 JUMPI PUSH1 0x4 CALLDATALOAD PUSH2 0x10FD DUP2 PUSH2 0x1716 JUMP JUMPDEST POP PUSH1 0x0 MSTORE PUSH1 0x4 PUSH1 0x20 MSTORE PUSH1 0x20 PUSH1 0x1 DUP1 PUSH1 0xA0 SHL SUB PUSH1 0x40 PUSH1 0x0 KECCAK256 SLOAD AND PUSH1 0x40 MLOAD SWAP1 DUP2 MSTORE RETURN JUMPDEST CALLVALUE PUSH2 0x1F7 JUMPI PUSH1 0x0 CALLDATASIZE PUSH1 0x3 NOT ADD SLT PUSH2 0x1F7 JUMPI PUSH1 0x40 MLOAD PUSH1 0x0 DUP1 SLOAD PUSH2 0x113F DUP2 PUSH2 0x132F JUMP JUMPDEST DUP1 DUP5 MSTORE SWAP1 PUSH1 0x1 SWAP1 DUP2 DUP2 AND SWAP1 DUP2 ISZERO PUSH2 0xB7A JUMPI POP PUSH1 0x1 EQ PUSH2 0x1168 JUMPI PUSH2 0x516 DUP5 PUSH2 0xB0D DUP2 DUP7 SUB DUP3 PUSH2 0x1385 JUMP JUMPDEST PUSH1 0x0 DUP1 DUP1 MSTORE SWAP3 POP PUSH32 0x290DECD9548B62A8D60345A988386FC84BA6BC95484008F6362F93160EF3E563 JUMPDEST DUP3 DUP5 LT PUSH2 0x11A9 JUMPI POP POP POP DUP2 ADD PUSH1 0x20 ADD PUSH2 0xB0D DUP3 PUSH2 0xAFD JUMP JUMPDEST DUP1 SLOAD PUSH1 0x20 DUP6 DUP8 ADD DUP2 ADD SWAP2 SWAP1 SWAP2 MSTORE SWAP1 SWAP4 ADD SWAP3 DUP2 ADD PUSH2 0x1191 JUMP JUMPDEST CALLVALUE PUSH2 0x1F7 JUMPI PUSH1 0x20 CALLDATASIZE PUSH1 0x3 NOT ADD SLT PUSH2 0x1F7 JUMPI PUSH1 0x4 CALLDATALOAD SWAP1 PUSH4 0xFFFFFFFF PUSH1 0xE0 SHL DUP3 AND DUP1 SWAP3 SUB PUSH2 0x1F7 JUMPI PUSH1 0x20 SWAP2 PUSH4 0x780E9D63 PUSH1 0xE0 SHL DUP2 EQ SWAP1 DUP2 ISZERO PUSH2 0x1203 JUMPI JUMPDEST POP ISZERO ISZERO DUP2 MSTORE RETURN JUMPDEST PUSH4 0x80AC58CD PUSH1 0xE0 SHL DUP2 EQ SWAP2 POP DUP2 ISZERO PUSH2 0x1235 JUMPI JUMPDEST DUP2 ISZERO PUSH2 0x1224 JUMPI JUMPDEST POP DUP4 PUSH2 0x11FC JUMP JUMPDEST PUSH4 0x1FFC9A7 PUSH1 0xE0 SHL EQ SWAP1 POP DUP4 PUSH2 0x121D JUMP JUMPDEST PUSH4 0x5B5E139F PUSH1 0xE0 SHL DUP2 EQ SWAP2 POP PUSH2 0x1216 JUMP JUMPDEST SWAP2 SWAP1 DUP3 MLOAD SWAP3 DUP4 DUP3 MSTORE PUSH1 0x0 JUMPDEST DUP5 DUP2 LT PUSH2 0x1272 JUMPI POP POP DUP3 PUSH1 0x0 PUSH1 0x20 DUP1 SWAP5 SWAP6 DUP5 ADD ADD MSTORE PUSH1 0x1F DUP1 NOT SWAP2 ADD AND ADD ADD SWAP1 JUMP JUMPDEST PUSH1 0x20 DUP2 DUP4 ADD DUP2 ADD MLOAD DUP5 DUP4 ADD DUP3 ADD MSTORE ADD PUSH2 0x1251 JUMP JUMPDEST PUSH1 0x4 CALLDATALOAD SWAP1 PUSH1 0x1 PUSH1 0x1 PUSH1 0xA0 SHL SUB DUP3 AND DUP3 SUB PUSH2 0x1F7 JUMPI JUMP JUMPDEST PUSH1 0x24 CALLDATALOAD SWAP1 PUSH1 0x1 PUSH1 0x1 PUSH1 0xA0 SHL SUB DUP3 AND DUP3 SUB PUSH2 0x1F7 JUMPI JUMP JUMPDEST SWAP1 PUSH1 0x3 DUP3 LT ISZERO PUSH2 0x49B JUMPI MSTORE JUMP JUMPDEST PUSH1 0x60 SWAP1 PUSH1 0x3 NOT ADD SLT PUSH2 0x1F7 JUMPI PUSH1 0x1 PUSH1 0x1 PUSH1 0xA0 SHL SUB SWAP1 PUSH1 0x4 CALLDATALOAD DUP3 DUP2 AND DUP2 SUB PUSH2 0x1F7 JUMPI SWAP2 PUSH1 0x24 CALLDATALOAD SWAP1 DUP2 AND DUP2 SUB PUSH2 0x1F7 JUMPI SWAP1 PUSH1 0x44 CALLDATALOAD SWAP1 JUMP JUMPDEST PUSH1 0x20 SWAP1 DUP2 PUSH1 0x40 DUP2 DUP4 ADD SWAP3 DUP3 DUP2 MSTORE DUP6 MLOAD DUP1 SWAP5 MSTORE ADD SWAP4 ADD SWAP2 PUSH1 0x0 JUMPDEST DUP3 DUP2 LT PUSH2 0x131B JUMPI POP POP POP POP SWAP1 JUMP JUMPDEST DUP4 MLOAD DUP6 MSTORE SWAP4 DUP2 ADD SWAP4 SWAP3 DUP2 ADD SWAP3 PUSH1 0x1 ADD PUSH2 0x130D JUMP JUMPDEST SWAP1 PUSH1 0x1 DUP3 DUP2 SHR SWAP3 AND DUP1 ISZERO PUSH2 0x135F JUMPI JUMPDEST PUSH1 0x20 DUP4 LT EQ PUSH2 0x1349 JUMPI JUMP JUMPDEST PUSH4 0x4E487B71 PUSH1 0xE0 SHL PUSH1 0x0 MSTORE PUSH1 0x22 PUSH1 0x4 MSTORE PUSH1 0x24 PUSH1 0x0 REVERT JUMPDEST SWAP2 PUSH1 0x7F AND SWAP2 PUSH2 0x133E JUMP JUMPDEST PUSH1 0x20 DUP2 ADD SWAP1 DUP2 LT PUSH8 0xFFFFFFFFFFFFFFFF DUP3 GT OR PUSH2 0x7F1 JUMPI PUSH1 0x40 MSTORE JUMP JUMPDEST SWAP1 PUSH1 0x1F DUP1 NOT SWAP2 ADD AND DUP2 ADD SWAP1 DUP2 LT PUSH8 0xFFFFFFFFFFFFFFFF DUP3 GT OR PUSH2 0x7F1 JUMPI PUSH1 0x40 MSTORE JUMP JUMPDEST PUSH8 0xFFFFFFFFFFFFFFFF DUP2 GT PUSH2 0x7F1 JUMPI PUSH1 0x1F ADD PUSH1 0x1F NOT AND PUSH1 0x20 ADD SWAP1 JUMP JUMPDEST SWAP3 SWAP2 SWAP3 PUSH2 0x13CF DUP3 PUSH2 0x13A7 JUMP JUMPDEST SWAP2 PUSH2 0x13DD PUSH1 0x40 MLOAD SWAP4 DUP5 PUSH2 0x1385 JUMP JUMPDEST DUP3 SWAP5 DUP2 DUP5 MSTORE DUP2 DUP4 ADD GT PUSH2 0x1F7 JUMPI DUP3 DUP2 PUSH1 0x20 SWAP4 DUP5 PUSH1 0x0 SWAP7 ADD CALLDATACOPY ADD ADD MSTORE JUMP JUMPDEST PUSH1 0xA SLOAD PUSH1 0x1 PUSH1 0x1 PUSH1 0xA0 SHL SUB AND CALLER SUB PUSH2 0x140E JUMPI JUMP JUMPDEST PUSH1 0x40 MLOAD PUSH4 0x118CDAA7 PUSH1 0xE0 SHL DUP2 MSTORE CALLER PUSH1 0x4 DUP3 ADD MSTORE PUSH1 0x24 SWAP1 REVERT JUMPDEST PUSH1 0x1 PUSH1 0x1 PUSH1 0xA0 SHL SUB AND DUP1 ISZERO PUSH2 0x1446 JUMPI PUSH1 0x0 MSTORE PUSH1 0x3 PUSH1 0x20 MSTORE PUSH1 0x40 PUSH1 0x0 KECCAK256 SLOAD SWAP1 JUMP JUMPDEST PUSH1 0x40 MLOAD PUSH4 0x22718AD9 PUSH1 0xE2 SHL DUP2 MSTORE PUSH1 0x0 PUSH1 0x4 DUP3 ADD MSTORE PUSH1 0x24 SWAP1 REVERT JUMPDEST SWAP1 PUSH1 0x1 PUSH1 0x1 PUSH1 0xA0 SHL SUB DUP1 DUP3 AND SWAP1 DUP2 ISZERO PUSH2 0x395 JUMPI PUSH1 0x0 SWAP2 DUP6 DUP4 MSTORE PUSH1 0x20 SWAP3 PUSH1 0x2 DUP5 MSTORE PUSH1 0x40 SWAP4 DUP4 DUP6 DUP4 KECCAK256 SLOAD AND SWAP6 CALLER ISZERO ISZERO DUP1 PUSH2 0x1688 JUMPI JUMPDEST POP DUP7 ISZERO DUP1 ISZERO PUSH2 0x1655 JUMPI JUMPDEST DUP5 DUP5 MSTORE PUSH1 0x3 DUP4 MSTORE DUP7 DUP5 KECCAK256 DUP1 SLOAD PUSH1 0x1 ADD SWAP1 SSTORE DUP10 DUP5 MSTORE PUSH1 0x2 DUP4 MSTORE DUP7 DUP5 KECCAK256 DUP1 SLOAD PUSH1 0x1 PUSH1 0x1 PUSH1 0xA0 SHL SUB NOT AND DUP7 OR SWAP1 SSTORE DUP10 DUP6 DUP10 PUSH32 0xDDF252AD1BE2C89B69C2B068FC378DAA952BA7F163C4A11628F55A4DF523B3EF DUP8 DUP1 LOG4 ISZERO PUSH2 0x15E9 JUMPI PUSH1 0x8 SLOAD DUP10 DUP5 MSTORE PUSH1 0x9 DUP4 MSTORE DUP1 DUP8 DUP6 KECCAK256 SSTORE PUSH1 0x1 PUSH1 0x40 SHL DUP2 LT ISZERO PUSH2 0x15D5 JUMPI DUP10 PUSH2 0x1522 DUP3 PUSH1 0x1 PUSH2 0x153B SWAP5 ADD PUSH1 0x8 SSTORE PUSH2 0x17B1 JUMP JUMPDEST SWAP1 SWAP2 SWAP1 DUP3 SLOAD SWAP1 PUSH1 0x3 SHL SWAP2 DUP3 SHL SWAP2 PUSH1 0x0 NOT SWAP1 SHL NOT AND OR SWAP1 SSTORE JUMP JUMPDEST DUP4 DUP8 SUB PUSH2 0x1583 JUMPI JUMPDEST POP POP POP POP DUP4 AND DUP3 SUB PUSH2 0x1555 JUMPI POP POP POP POP JUMP JUMPDEST MLOAD PUSH4 0x64283D7B PUSH1 0xE0 SHL DUP2 MSTORE PUSH1 0x1 PUSH1 0x1 PUSH1 0xA0 SHL SUB SWAP3 DUP4 AND PUSH1 0x4 DUP3 ADD MSTORE PUSH1 0x24 DUP2 ADD SWAP4 SWAP1 SWAP4 MSTORE AND PUSH1 0x44 DUP3 ADD MSTORE PUSH1 0x64 SWAP1 REVERT JUMPDEST PUSH2 0x158C SWAP1 PUSH2 0x1426 JUMP JUMPDEST PUSH1 0x0 NOT DUP2 ADD SWAP4 SWAP1 DUP5 GT PUSH2 0x15C1 JUMPI DUP3 SWAP2 PUSH1 0x7 SWAP2 DUP8 SWAP5 MSTORE PUSH1 0x6 DUP2 MSTORE DUP4 DUP4 KECCAK256 DUP6 DUP5 MSTORE DUP2 MSTORE DUP10 DUP5 DUP5 KECCAK256 SSTORE DUP10 DUP4 MSTORE MSTORE KECCAK256 SSTORE CODESIZE DUP1 DUP1 DUP1 PUSH2 0x1543 JUMP JUMPDEST PUSH4 0x4E487B71 PUSH1 0xE0 SHL DUP4 MSTORE PUSH1 0x11 PUSH1 0x4 MSTORE PUSH1 0x24 DUP4 REVERT JUMPDEST PUSH4 0x4E487B71 PUSH1 0xE0 SHL DUP5 MSTORE PUSH1 0x41 PUSH1 0x4 MSTORE PUSH1 0x24 DUP5 REVERT JUMPDEST DUP7 DUP5 EQ PUSH2 0x153B JUMPI PUSH2 0x15F9 DUP8 PUSH2 0x1426 JUMP JUMPDEST DUP10 DUP5 MSTORE PUSH1 0x7 DUP4 MSTORE DUP7 DUP5 KECCAK256 SLOAD SWAP1 DUP9 DUP6 MSTORE PUSH1 0x6 DUP5 MSTORE DUP8 DUP6 KECCAK256 SWAP2 DUP2 DUP2 SUB PUSH2 0x1633 JUMPI JUMPDEST POP DUP11 DUP6 MSTORE PUSH1 0x7 DUP5 MSTORE DUP5 DUP9 DUP2 KECCAK256 SSTORE DUP5 MSTORE DUP3 MSTORE DUP3 DUP7 DUP2 KECCAK256 SSTORE PUSH2 0x153B JUMP JUMPDEST DUP2 DUP7 MSTORE DUP3 DUP6 MSTORE DUP9 DUP7 KECCAK256 SLOAD DUP2 DUP8 MSTORE DUP1 DUP11 DUP9 KECCAK256 SSTORE DUP7 MSTORE PUSH1 0x7 DUP6 MSTORE DUP9 DUP7 KECCAK256 SSTORE CODESIZE PUSH2 0x1618 JUMP JUMPDEST PUSH1 0x0 DUP11 DUP2 MSTORE PUSH1 0x4 PUSH1 0x20 MSTORE PUSH1 0x40 SWAP1 KECCAK256 DUP1 SLOAD PUSH1 0x1 PUSH1 0x1 PUSH1 0xA0 SHL SUB NOT AND SWAP1 SSTORE DUP8 DUP5 MSTORE PUSH1 0x3 DUP4 MSTORE DUP7 DUP5 KECCAK256 DUP1 SLOAD PUSH1 0x0 NOT ADD SWAP1 SSTORE PUSH2 0x149C JUMP JUMPDEST DUP1 PUSH2 0x16D5 JUMPI JUMPDEST ISZERO PUSH2 0x1699 JUMPI CODESIZE PUSH2 0x1492 JUMP JUMPDEST DUP6 DUP10 DUP9 PUSH2 0x16B6 JUMPI PUSH1 0x24 SWAP2 MLOAD SWAP1 PUSH4 0x7E273289 PUSH1 0xE0 SHL DUP3 MSTORE PUSH1 0x4 DUP3 ADD MSTORE REVERT JUMPDEST SWAP1 MLOAD PUSH4 0x177E802F PUSH1 0xE0 SHL DUP2 MSTORE CALLER PUSH1 0x4 DUP3 ADD MSTORE PUSH1 0x24 DUP2 ADD SWAP2 SWAP1 SWAP2 MSTORE PUSH1 0x44 SWAP1 REVERT JUMPDEST POP CALLER DUP8 EQ DUP1 ISZERO PUSH2 0x16FA JUMPI JUMPDEST DUP1 PUSH2 0x168E JUMPI POP DUP9 DUP4 MSTORE PUSH1 0x4 DUP3 MSTORE CALLER DUP6 DUP8 DUP6 KECCAK256 SLOAD AND EQ PUSH2 0x168E JUMP JUMPDEST POP DUP7 DUP4 MSTORE PUSH1 0x5 DUP3 MSTORE DUP6 DUP4 KECCAK256 CALLER DUP5 MSTORE DUP3 MSTORE PUSH1 0xFF DUP7 DUP5 KECCAK256 SLOAD AND PUSH2 0x16E0 JUMP JUMPDEST PUSH1 0x0 DUP2 DUP2 MSTORE PUSH1 0x2 PUSH1 0x20 MSTORE PUSH1 0x40 SWAP1 KECCAK256 SLOAD PUSH1 0x1 PUSH1 0x1 PUSH1 0xA0 SHL SUB AND SWAP1 DUP2 ISZERO PUSH2 0x1739 JUMPI POP SWAP1 JUMP JUMPDEST PUSH1 0x24 SWAP1 PUSH1 0x40 MLOAD SWAP1 PUSH4 0x7E273289 PUSH1 0xE0 SHL DUP3 MSTORE PUSH1 0x4 DUP3 ADD MSTORE REVERT JUMPDEST PUSH2 0x175A DUP2 PUSH2 0x1426 JUMP JUMPDEST DUP3 LT ISZERO PUSH2 0x1786 JUMPI PUSH1 0x1 DUP1 PUSH1 0xA0 SHL SUB AND PUSH1 0x0 MSTORE PUSH1 0x6 PUSH1 0x20 MSTORE PUSH1 0x40 PUSH1 0x0 KECCAK256 SWAP1 PUSH1 0x0 MSTORE PUSH1 0x20 MSTORE PUSH1 0x40 PUSH1 0x0 KECCAK256 SLOAD SWAP1 JUMP JUMPDEST PUSH1 0x40 MLOAD PUSH4 0x295F44F7 PUSH1 0xE2 SHL DUP2 MSTORE PUSH1 0x1 PUSH1 0x1 PUSH1 0xA0 SHL SUB SWAP2 SWAP1 SWAP2 AND PUSH1 0x4 DUP3 ADD MSTORE PUSH1 0x24 DUP2 ADD SWAP2 SWAP1 SWAP2 MSTORE PUSH1 0x44 SWAP1 REVERT JUMPDEST PUSH1 0x8 SLOAD DUP2 LT ISZERO PUSH2 0x17E8 JUMPI PUSH1 0x8 PUSH1 0x0 MSTORE PUSH32 0xF3F7A9FE364FAAB93B216DA50A3214154F22A0A2B415B23A84C8169E8B636EE3 ADD SWAP1 PUSH1 0x0 SWAP1 JUMP JUMPDEST PUSH4 0x4E487B71 PUSH1 0xE0 SHL PUSH1 0x0 MSTORE PUSH1 0x32 PUSH1 0x4 MSTORE PUSH1 0x24 PUSH1 0x0 REVERT JUMPDEST PUSH1 0x8 SLOAD DUP2 LT ISZERO PUSH2 0x181B JUMPI PUSH2 0x1811 SWAP1 PUSH2 0x17B1 JUMP JUMPDEST SWAP1 SLOAD SWAP1 PUSH1 0x3 SHL SHR SWAP1 JUMP JUMPDEST PUSH1 0x44 SWAP1 PUSH1 0x40 MLOAD SWAP1 PUSH4 0x295F44F7 PUSH1 0xE2 SHL DUP3 MSTORE PUSH1 0x0 PUSH1 0x4 DUP4 ADD MSTORE PUSH1 0x24 DUP3 ADD MSTORE REVERT JUMPDEST PUSH1 0x0 DUP3 DUP2 MSTORE PUSH1 0x2 PUSH1 0x20 SWAP1 DUP2 MSTORE PUSH1 0x40 DUP1 DUP4 KECCAK256 SLOAD PUSH1 0x1 PUSH1 0x1 PUSH1 0xA0 SHL SUB SWAP1 DUP2 AND SWAP6 SWAP3 SWAP5 SWAP2 SWAP3 SWAP2 DUP7 ISZERO SWAP2 DUP3 ISZERO PUSH2 0x1A8C JUMPI JUMPDEST DUP2 AND SWAP2 DUP3 ISZERO SWAP1 DUP2 ISZERO PUSH2 0x1A76 JUMPI JUMPDEST DUP5 DUP8 MSTORE PUSH1 0x2 DUP9 MSTORE DUP6 DUP8 KECCAK256 DUP1 SLOAD PUSH1 0x1 PUSH1 0x1 PUSH1 0xA0 SHL SUB NOT AND DUP6 OR SWAP1 SSTORE DUP5 DUP5 DUP11 PUSH32 0xDDF252AD1BE2C89B69C2B068FC378DAA952BA7F163C4A11628F55A4DF523B3EF DUP11 DUP1 LOG4 ISZERO PUSH2 0x1A0A JUMPI PUSH1 0x8 SLOAD DUP5 DUP8 MSTORE PUSH1 0x9 DUP9 MSTORE DUP1 DUP7 DUP9 KECCAK256 SSTORE PUSH1 0x1 PUSH1 0x40 SHL DUP2 LT ISZERO PUSH2 0x19F6 JUMPI DUP5 PUSH2 0x1522 DUP3 PUSH1 0x1 PUSH2 0x18E9 SWAP5 ADD PUSH1 0x8 SSTORE PUSH2 0x17B1 JUMP JUMPDEST ISZERO PUSH2 0x198D JUMPI POP POP PUSH1 0x8 SLOAD PUSH1 0x0 NOT SWAP5 DUP6 DUP3 ADD SWAP2 DUP3 GT PUSH2 0x1979 JUMPI SWAP1 PUSH1 0x9 DUP4 SWAP3 DUP7 SWAP6 SWAP5 DUP7 MSTORE DUP2 DUP2 MSTORE PUSH2 0x191B DUP6 DUP8 KECCAK256 SLOAD SWAP4 PUSH2 0x17B1 JUMP JUMPDEST SWAP1 SLOAD SWAP1 PUSH1 0x3 SHL SHR PUSH2 0x192F DUP2 PUSH2 0x1522 DUP7 PUSH2 0x17B1 JUMP JUMPDEST DUP7 MSTORE MSTORE DUP3 DUP5 KECCAK256 SSTORE DUP3 MSTORE DUP2 KECCAK256 SSTORE PUSH1 0x8 SLOAD SWAP1 DUP2 ISZERO PUSH2 0x1965 JUMPI POP DUP2 ADD SWAP1 PUSH2 0x1952 DUP3 PUSH2 0x17B1 JUMP JUMPDEST SWAP1 SWAP2 DUP3 SLOAD SWAP2 PUSH1 0x3 SHL SHL NOT AND SWAP1 SSTORE PUSH1 0x8 SSTORE SWAP1 JUMP JUMPDEST PUSH4 0x4E487B71 PUSH1 0xE0 SHL DUP2 MSTORE PUSH1 0x31 PUSH1 0x4 MSTORE PUSH1 0x24 SWAP1 REVERT JUMPDEST PUSH4 0x4E487B71 PUSH1 0xE0 SHL DUP6 MSTORE PUSH1 0x11 PUSH1 0x4 MSTORE PUSH1 0x24 DUP6 REVERT JUMPDEST DUP2 DUP8 SWAP7 SWAP4 SWAP3 SWAP7 SWAP6 SWAP5 SWAP6 SUB PUSH2 0x19A5 JUMPI JUMPDEST POP POP POP POP POP POP SWAP1 JUMP JUMPDEST PUSH2 0x19AE SWAP1 PUSH2 0x1426 JUMP JUMPDEST PUSH1 0x0 NOT DUP2 ADD SWAP6 SWAP1 DUP7 GT PUSH2 0x19E2 JUMPI DUP4 MSTORE PUSH1 0x6 DUP3 MSTORE DUP4 DUP4 KECCAK256 DUP6 DUP5 MSTORE DUP3 MSTORE DUP4 DUP4 KECCAK256 DUP2 SWAP1 SSTORE DUP3 MSTORE PUSH1 0x7 SWAP1 MSTORE KECCAK256 SSTORE CODESIZE DUP1 DUP1 DUP1 DUP1 DUP1 PUSH2 0x199C JUMP JUMPDEST PUSH4 0x4E487B71 PUSH1 0xE0 SHL DUP5 MSTORE PUSH1 0x11 PUSH1 0x4 MSTORE PUSH1 0x24 DUP5 REVERT JUMPDEST PUSH4 0x4E487B71 PUSH1 0xE0 SHL DUP8 MSTORE PUSH1 0x41 PUSH1 0x4 MSTORE PUSH1 0x24 DUP8 REVERT JUMPDEST DUP8 DUP4 EQ PUSH2 0x18E9 JUMPI PUSH2 0x1A1A DUP9 PUSH2 0x1426 JUMP JUMPDEST DUP5 DUP8 MSTORE PUSH1 0x7 DUP9 MSTORE DUP6 DUP8 KECCAK256 SLOAD SWAP1 DUP10 DUP9 MSTORE PUSH1 0x6 DUP10 MSTORE DUP7 DUP9 KECCAK256 SWAP2 DUP2 DUP2 SUB PUSH2 0x1A54 JUMPI JUMPDEST POP DUP6 DUP9 MSTORE PUSH1 0x7 DUP10 MSTORE DUP8 DUP8 DUP2 KECCAK256 SSTORE DUP8 MSTORE DUP8 MSTORE DUP6 DUP6 DUP2 KECCAK256 SSTORE PUSH2 0x18E9 JUMP JUMPDEST DUP2 DUP10 MSTORE DUP3 DUP11 MSTORE DUP8 DUP10 KECCAK256 SLOAD DUP2 DUP11 MSTORE DUP1 DUP10 DUP12 KECCAK256 SSTORE DUP10 MSTORE PUSH1 0x7 DUP11 MSTORE DUP8 DUP10 KECCAK256 SSTORE CODESIZE PUSH2 0x1A39 JUMP JUMPDEST DUP4 DUP8 MSTORE PUSH1 0x3 DUP9 MSTORE DUP6 DUP8 KECCAK256 PUSH1 0x1 DUP2 SLOAD ADD SWAP1 SSTORE PUSH2 0x1874 JUMP JUMPDEST PUSH1 0x0 DUP5 DUP2 MSTORE PUSH1 0x4 PUSH1 0x20 MSTORE PUSH1 0x40 SWAP1 KECCAK256 DUP1 SLOAD PUSH1 0x1 PUSH1 0x1 PUSH1 0xA0 SHL SUB NOT AND SWAP1 SSTORE DUP8 DUP7 MSTORE PUSH1 0x3 DUP8 MSTORE DUP5 DUP7 KECCAK256 DUP1 SLOAD PUSH1 0x0 NOT ADD SWAP1 SSTORE PUSH2 0x1867 JUMP JUMPDEST RETURNDATASIZE ISZERO PUSH2 0x1AEA JUMPI RETURNDATASIZE SWAP1 PUSH2 0x1AD0 DUP3 PUSH2 0x13A7 JUMP JUMPDEST SWAP2 PUSH2 0x1ADE PUSH1 0x40 MLOAD SWAP4 DUP5 PUSH2 0x1385 JUMP JUMPDEST DUP3 MSTORE RETURNDATASIZE PUSH1 0x0 PUSH1 0x20 DUP5 ADD RETURNDATACOPY JUMP JUMPDEST PUSH1 0x60 SWAP1 JUMP JUMPDEST SWAP3 SWAP4 DUP3 EXTCODESIZE PUSH2 0x1AFF JUMPI JUMPDEST POP POP POP POP POP JUMP JUMPDEST PUSH2 0x1B43 SWAP1 PUSH1 0x1 DUP1 PUSH1 0xA0 SHL SUB DUP1 SWAP5 AND SWAP6 PUSH1 0x40 MLOAD SWAP5 DUP6 SWAP5 DUP2 PUSH4 0xA85BD01 PUSH1 0xE1 SHL SWAP9 DUP10 DUP9 MSTORE AND PUSH1 0x4 DUP8 ADD MSTORE AND PUSH1 0x24 DUP6 ADD MSTORE PUSH1 0x44 DUP5 ADD MSTORE PUSH1 0x80 PUSH1 0x64 DUP5 ADD MSTORE PUSH1 0x84 DUP4 ADD SWAP1 PUSH2 0x1246 JUMP JUMPDEST SUB SWAP1 PUSH1 0x20 DUP2 PUSH1 0x0 SWAP4 DUP2 DUP6 DUP9 GAS CALL SWAP1 DUP3 SWAP1 DUP3 PUSH2 0x1B82 JUMPI JUMPDEST POP POP PUSH2 0x1B68 JUMPI DUP3 PUSH2 0x85F PUSH2 0x1ABF JUMP JUMPDEST PUSH1 0x1 PUSH1 0x1 PUSH1 0xE0 SHL SUB NOT AND SUB PUSH2 0x8A5 JUMPI POP CODESIZE DUP1 DUP1 DUP1 DUP1 PUSH2 0x1AF8 JUMP JUMPDEST SWAP1 SWAP2 SWAP3 POP PUSH1 0x20 DUP2 RETURNDATASIZE DUP3 GT PUSH2 0x1BC9 JUMPI JUMPDEST DUP2 PUSH2 0x1B9E PUSH1 0x20 SWAP4 DUP4 PUSH2 0x1385 JUMP JUMPDEST DUP2 ADD SUB SLT PUSH2 0x1BC5 JUMPI MLOAD SWAP1 PUSH1 0x1 PUSH1 0x1 PUSH1 0xE0 SHL SUB NOT DUP3 AND DUP3 SUB PUSH2 0x1BC2 JUMPI POP SWAP1 CODESIZE DUP1 PUSH2 0x1B59 JUMP JUMPDEST DUP1 REVERT JUMPDEST POP DUP1 REVERT JUMPDEST RETURNDATASIZE SWAP2 POP PUSH2 0x1B91 JUMP JUMPDEST PUSH1 0x0 NOT DUP2 EQ PUSH2 0x1BE0 JUMPI PUSH1 0x1 ADD SWAP1 JUMP JUMPDEST PUSH4 0x4E487B71 PUSH1 0xE0 SHL PUSH1 0x0 MSTORE PUSH1 0x11 PUSH1 0x4 MSTORE PUSH1 0x24 PUSH1 0x0 REVERT JUMPDEST SWAP1 PUSH1 0x3 DUP2 LT ISZERO PUSH2 0x49B JUMPI PUSH1 0xFF DUP1 NOT DUP4 SLOAD AND SWAP2 AND OR SWAP1 SSTORE JUMP JUMPDEST ISZERO PUSH2 0x1C15 JUMPI JUMP JUMPDEST PUSH1 0x40 MLOAD PUSH3 0x461BCD PUSH1 0xE5 SHL DUP2 MSTORE PUSH1 0x20 PUSH1 0x4 DUP3 ADD MSTORE PUSH1 0x14 PUSH1 0x24 DUP3 ADD MSTORE PUSH20 0x496E67726573736F20696E6578697374656E7465 PUSH1 0x60 SHL PUSH1 0x44 DUP3 ADD MSTORE PUSH1 0x64 SWAP1 REVERT JUMPDEST PUSH1 0x40 MLOAD SWAP1 PUSH4 0x31A9108F PUSH1 0xE1 SHL DUP3 MSTORE PUSH1 0x4 DUP3 ADD MSTORE PUSH1 0x20 DUP2 PUSH1 0x24 DUP2 ADDRESS GAS STATICCALL SWAP1 DUP2 PUSH2 0x1C83 JUMPI JUMPDEST POP PUSH2 0x1C7E JUMPI PUSH1 0x0 SWAP1 JUMP JUMPDEST PUSH1 0x1 SWAP1 JUMP JUMPDEST PUSH1 0x20 DUP2 RETURNDATASIZE DUP3 GT PUSH2 0x1CB9 JUMPI JUMPDEST DUP2 PUSH2 0x1C9B PUSH1 0x20 SWAP4 DUP4 PUSH2 0x1385 JUMP JUMPDEST DUP2 ADD SUB SLT PUSH2 0x1F7 JUMPI MLOAD PUSH1 0x1 PUSH1 0x1 PUSH1 0xA0 SHL SUB DUP2 AND SUB PUSH2 0x1F7 JUMPI CODESIZE PUSH2 0x1C74 JUMP JUMPDEST RETURNDATASIZE SWAP2 POP PUSH2 0x1C8E JUMP JUMPDEST PUSH8 0xFFFFFFFFFFFFFFFF DUP2 GT PUSH2 0x7F1 JUMPI PUSH1 0x5 SHL PUSH1 0x20 ADD SWAP1 JUMP JUMPDEST SWAP1 PUSH2 0x1CE3 DUP3 PUSH2 0x1CC1 JUMP JUMPDEST PUSH2 0x1CF0 PUSH1 0x40 MLOAD SWAP2 DUP3 PUSH2 0x1385 JUMP JUMPDEST DUP3 DUP2 MSTORE DUP1 SWAP3 PUSH2 0x1D01 PUSH1 0x1F NOT SWAP2 PUSH2 0x1CC1 JUMP JUMPDEST ADD SWAP1 PUSH1 0x20 CALLDATASIZE SWAP2 ADD CALLDATACOPY JUMP JUMPDEST DUP1 MLOAD DUP3 LT ISZERO PUSH2 0x17E8 JUMPI PUSH1 0x20 SWAP2 PUSH1 0x5 SHL ADD ADD SWAP1 JUMP INVALID LOG2 PUSH5 0x6970667358 0x22 SLT KECCAK256 0xF9 PUSH5 0xAD9C0FF86E 0xCA GASPRICE 0xA6 BLOCKHASH 0xB9 0xAD 0xD5 0xB1 PUSH21 0x3D8CB9FB08C0040F9831EF109568A31B64736F6C63 NUMBER STOP ADDMOD EQ STOP CALLER "},"methodIdentifiers":{"approve(address,uint256)":"095ea7b3","atualizarStatus(uint256,uint8)":"8f9c654c","balanceOf(address)":"70a08231","comprarIngresso(uint256)":"c8b86c6d","criarIngresso(string,uint256,uint256)":"b7b28ee8","dataEvento(uint256)":"0df4932d","getApproved(uint256)":"081812fc","ingressos(uint256)":"574ccbc6","ingressosDoUsuario(address)":"5d26e8fa","isApprovedForAll(address,address)":"e985e9c5","listarIngressos()":"2b6e7eb4","name()":"06fdde03","nextTokenId()":"75794a3c","owner()":"8da5cb5b","ownerOf(uint256)":"6352211e","renounceOwnership()":"715018a6","revenderIngresso(uint256,uint256)":"a833431a","safeTransferFrom(address,address,uint256)":"42842e0e","safeTransferFrom(address,address,uint256,bytes)":"b88d4fde","setApprovalForAll(address,bool)":"a22cb465","statusIngresso(uint256)":"0af47e14","supportsInterface(bytes4)":"01ffc9a7","symbol()":"95d89b41","tokenByIndex(uint256)":"4f6ccce7","tokenOfOwnerByIndex(address,uint256)":"2f745c59","tokenURI(uint256)":"c87b56dd","totalSupply()":"18160ddd","transferFrom(address,address,uint256)":"23b872dd","transferOwnership(address)":"f2fde38b","verificarIngresso(uint256)":"305248fb"}}}}}