{
  "_format": "hh-sol-artifact-1",
  "contractName": "TicketNFT",
  "sourceName": "contracts/TicketNFT.sol",
  "abi": [
    {
      "inputs": [],
      "stateMutability": "nonpayable",
      "type": "constructor"
    },
    {
      "inputs": [],
      "name": "ERC721EnumerableForbiddenBatchMint",
      "type": "error"
    },
    {
      "inputs": [
        {
          "internalType": "address",
          "name": "sender",
          "type": "address"
        },
        {
          "internalType": "uint256",
          "name": "tokenId",
          "type": "uint256"
        },
        {
          "internalType": "address",
          "name": "owner",
          "type": "address"
        }
      ],
      "name": "ERC721IncorrectOwner",
      "type": "error"
    },
    {
      "inputs": [
        {
          "internalType": "address",
          "name": "operator",
          "type": "address"
        },
        {
          "internalType": "uint256",
          "name": "tokenId",
          "type": "uint256"
        }
      ],
      "name": "ERC721InsufficientApproval",
      "type": "error"
    },
    {
      "inputs": [
        {
          "internalType": "address",
          "name": "approver",
          "type": "address"
        }
      ],
      "name": "ERC721InvalidApprover",
      "type": "error"
    },
    {
      "inputs": [
        {
          "internalType": "address",
          "name": "operator",
          "type": "address"
        }
      ],
      "name": "ERC721InvalidOperator",
      "type": "error"
    },
    {
      "inputs": [
        {
          "internalType": "address",
          "name": "owner",
          "type": "address"
        }
      ],
      "name": "ERC721InvalidOwner",
      "type": "error"
    },
    {
      "inputs": [
        {
          "internalType": "address",
          "name": "receiver",
          "type": "address"
        }
      ],
      "name": "ERC721InvalidReceiver",
      "type": "error"
    },
    {
      "inputs": [
        {
          "internalType": "address",
          "name": "sender",
          "type": "address"
        }
      ],
      "name": "ERC721InvalidSender",
      "type": "error"
    },
    {
      "inputs": [
        {
          "internalType": "uint256",
          "name": "tokenId",
          "type": "uint256"
        }
      ],
      "name": "ERC721NonexistentToken",
      "type": "error"
    },
    {
      "inputs": [
        {
          "internalType": "address",
          "name": "owner",
          "type": "address"
        },
        {
          "internalType": "uint256",
          "name": "index",
          "type": "uint256"
        }
      ],
      "name": "ERC721OutOfBoundsIndex",
      "type": "error"
    },
    {
      "inputs": [
        {
          "internalType": "address",
          "name": "owner",
          "type": "address"
        }
      ],
      "name": "OwnableInvalidOwner",
      "type": "error"
    },
    {
      "inputs": [
        {
          "internalType": "address",
          "name": "account",
          "type": "address"
        }
      ],
      "name": "OwnableUnauthorizedAccount",
      "type": "error"
    },
    {
      "inputs": [],
      "name": "ReentrancyGuardReentrantCall",
      "type": "error"
    },
    {
      "anonymous": false,
      "inputs": [
        {
          "indexed": true,
          "internalType": "address",
          "name": "owner",
          "type": "address"
        },
        {
          "indexed": true,
          "internalType": "address",
          "name": "approved",
          "type": "address"
        },
        {
          "indexed": true,
          "internalType": "uint256",
          "name": "tokenId",
          "type": "uint256"
        }
      ],
      "name": "Approval",
      "type": "event"
    },
    {
      "anonymous": false,
      "inputs": [
        {
          "indexed": true,
          "internalType": "address",
          "name": "owner",
          "type": "address"
        },
        {
          "indexed": true,
          "internalType": "address",
          "name": "operator",
          "type": "address"
        },
        {
          "indexed": false,
          "internalType": "bool",
          "name": "approved",
          "type": "bool"
        }
      ],
      "name": "ApprovalForAll",
      "type": "event"
    },
    {
      "anonymous": false,
      "inputs": [
        {
          "indexed": true,
          "internalType": "uint256",
          "name": "tokenId",
          "type": "uint256"
        },
        {
          "indexed": false,
          "internalType": "string",
          "name": "evento",
          "type": "string"
        },
        {
          "indexed": false,
          "internalType": "uint256",
          "name": "preco",
          "type": "uint256"
        },
        {
          "indexed": false,
          "internalType": "uint256",
          "name": "dataEvento",
          "type": "uint256"
        }
      ],
      "name": "IngressoCriado",
      "type": "event"
    },
    {
      "anonymous": false,
      "inputs": [
        {
          "indexed": true,
          "internalType": "uint256",
          "name": "tokenId",
          "type": "uint256"
        },
        {
          "indexed": false,
          "internalType": "uint256",
          "name": "novoPreco",
          "type": "uint256"
        }
      ],
      "name": "IngressoRevenda",
      "type": "event"
    },
    {
      "anonymous": false,
      "inputs": [
        {
          "indexed": true,
          "internalType": "uint256",
          "name": "tokenId",
          "type": "uint256"
        },
        {
          "indexed": true,
          "internalType": "address",
          "name": "comprador",
          "type": "address"
        },
        {
          "indexed": false,
          "internalType": "uint256",
          "name": "preco",
          "type": "uint256"
        }
      ],
      "name": "IngressoVendido",
      "type": "event"
    },
    {
      "anonymous": false,
      "inputs": [
        {
          "indexed": true,
          "internalType": "address",
          "name": "previousOwner",
          "type": "address"
        },
        {
          "indexed": true,
          "internalType": "address",
          "name": "newOwner",
          "type": "address"
        }
      ],
      "name": "OwnershipTransferred",
      "type": "event"
    },
    {
      "anonymous": false,
      "inputs": [
        {
          "indexed": true,
          "internalType": "address",
          "name": "from",
          "type": "address"
        },
        {
          "indexed": true,
          "internalType": "address",
          "name": "to",
          "type": "address"
        },
        {
          "indexed": true,
          "internalType": "uint256",
          "name": "tokenId",
          "type": "uint256"
        }
      ],
      "name": "Transfer",
      "type": "event"
    },
    {
      "inputs": [
        {
          "internalType": "address",
          "name": "to",
          "type": "address"
        },
        {
          "internalType": "uint256",
          "name": "tokenId",
          "type": "uint256"
        }
      ],
      "name": "approve",
      "outputs": [],
      "stateMutability": "nonpayable",
      "type": "function"
    },
    {
      "inputs": [
        {
          "internalType": "uint256",
          "name": "tokenId",
          "type": "uint256"
        },
        {
          "internalType": "enum TicketNFT.Status",
          "name": "novoStatus",
          "type": "uint8"
        }
      ],
      "name": "atualizarStatus",
      "outputs": [],
      "stateMutability": "nonpayable",
      "type": "function"
    },
    {
      "inputs": [
        {
          "internalType": "address",
          "name": "owner",
          "type": "address"
        }
      ],
      "name": "balanceOf",
      "outputs": [
        {
          "internalType": "uint256",
          "name": "",
          "type": "uint256"
        }
      ],
      "stateMutability": "view",
      "type": "function"
    },
    {
      "inputs": [
        {
          "internalType": "uint256",
          "name": "tokenId",
          "type": "uint256"
        }
      ],
      "name": "comprarIngresso",
      "outputs": [],
      "stateMutability": "payable",
      "type": "function"
    },
    {
      "inputs": [
        {
          "internalType": "string",
          "name": "_evento",
          "type": "string"
        },
        {
          "internalType": "uint256",
          "name": "_preco",
          "type": "uint256"
        },
        {
          "internalType": "uint256",
          "name": "_dataEvento",
          "type": "uint256"
        }
      ],
      "name": "criarIngresso",
      "outputs": [],
      "stateMutability": "nonpayable",
      "type": "function"
    },
    {
      "inputs": [
        {
          "internalType": "uint256",
          "name": "tokenId",
          "type": "uint256"
        }
      ],
      "name": "dataEvento",
      "outputs": [
        {
          "internalType": "uint256",
          "name": "",
          "type": "uint256"
        }
      ],
      "stateMutability": "view",
      "type": "function"
    },
    {
      "inputs": [
        {
          "internalType": "uint256",
          "name": "tokenId",
          "type": "uint256"
        }
      ],
      "name": "getApproved",
      "outputs": [
        {
          "internalType": "address",
          "name": "",
          "type": "address"
        }
      ],
      "stateMutability": "view",
      "type": "function"
    },
    {
      "inputs": [
        {
          "internalType": "uint256",
          "name": "",
          "type": "uint256"
        }
      ],
      "name": "ingressos",
      "outputs": [
        {
          "internalType": "string",
          "name": "evento",
          "type": "string"
        },
        {
          "internalType": "uint256",
          "name": "preco",
          "type": "uint256"
        },
        {
          "internalType": "uint256",
          "name": "dataEvento",
          "type": "uint256"
        },
        {
          "internalType": "enum TicketNFT.Status",
          "name": "status",
          "type": "uint8"
        }
      ],
      "stateMutability": "view",
      "type": "function"
    },
    {
      "inputs": [
        {
          "internalType": "address",
          "name": "usuario",
          "type": "address"
        }
      ],
      "name": "ingressosDoUsuario",
      "outputs": [
        {
          "internalType": "uint256[]",
          "name": "",
          "type": "uint256[]"
        }
      ],
      "stateMutability": "view",
      "type": "function"
    },
    {
      "inputs": [
        {
          "internalType": "address",
          "name": "owner",
          "type": "address"
        },
        {
          "internalType": "address",
          "name": "operator",
          "type": "address"
        }
      ],
      "name": "isApprovedForAll",
      "outputs": [
        {
          "internalType": "bool",
          "name": "",
          "type": "bool"
        }
      ],
      "stateMutability": "view",
      "type": "function"
    },
    {
      "inputs": [],
      "name": "listarIngressos",
      "outputs": [
        {
          "internalType": "uint256[]",
          "name": "",
          "type": "uint256[]"
        }
      ],
      "stateMutability": "view",
      "type": "function"
    },
    {
      "inputs": [],
      "name": "name",
      "outputs": [
        {
          "internalType": "string",
          "name": "",
          "type": "string"
        }
      ],
      "stateMutability": "view",
      "type": "function"
    },
    {
      "inputs": [],
      "name": "nextTokenId",
      "outputs": [
        {
          "internalType": "uint256",
          "name": "",
          "type": "uint256"
        }
      ],
      "stateMutability": "view",
      "type": "function"
    },
    {
      "inputs": [],
      "name": "owner",
      "outputs": [
        {
          "internalType": "address",
          "name": "",
          "type": "address"
        }
      ],
      "stateMutability": "view",
      "type": "function"
    },
    {
      "inputs": [
        {
          "internalType": "uint256",
          "name": "tokenId",
          "type": "uint256"
        }
      ],
      "name": "ownerOf",
      "outputs": [
        {
          "internalType": "address",
          "name": "",
          "type": "address"
        }
      ],
      "stateMutability": "view",
      "type": "function"
    },
    {
      "inputs": [],
      "name": "renounceOwnership",
      "outputs": [],
      "stateMutability": "nonpayable",
      "type": "function"
    },
    {
      "inputs": [
        {
          "internalType": "uint256",
          "name": "tokenId",
          "type": "uint256"
        },
        {
          "internalType": "uint256",
          "name": "novoPreco",
          "type": "uint256"
        }
      ],
      "name": "revenderIngresso",
      "outputs": [],
      "stateMutability": "nonpayable",
      "type": "function"
    },
    {
      "inputs": [
        {
          "internalType": "address",
          "name": "from",
          "type": "address"
        },
        {
          "internalType": "address",
          "name": "to",
          "type": "address"
        },
        {
          "internalType": "uint256",
          "name": "tokenId",
          "type": "uint256"
        }
      ],
      "name": "safeTransferFrom",
      "outputs": [],
      "stateMutability": "nonpayable",
      "type": "function"
    },
    {
      "inputs": [
        {
          "internalType": "address",
          "name": "from",
          "type": "address"
        },
        {
          "internalType": "address",
          "name": "to",
          "type": "address"
        },
        {
          "internalType": "uint256",
          "name": "tokenId",
          "type": "uint256"
        },
        {
          "internalType": "bytes",
          "name": "data",
          "type": "bytes"
        }
      ],
      "name": "safeTransferFrom",
      "outputs": [],
      "stateMutability": "nonpayable",
      "type": "function"
    },
    {
      "inputs": [
        {
          "internalType": "address",
          "name": "operator",
          "type": "address"
        },
        {
          "internalType": "bool",
          "name": "approved",
          "type": "bool"
        }
      ],
      "name": "setApprovalForAll",
      "outputs": [],
      "stateMutability": "nonpayable",
      "type": "function"
    },
    {
      "inputs": [
        {
          "internalType": "uint256",
          "name": "tokenId",
          "type": "uint256"
        }
      ],
      "name": "statusIngresso",
      "outputs": [
        {
          "internalType": "enum TicketNFT.Status",
          "name": "",
          "type": "uint8"
        }
      ],
      "stateMutability": "view",
      "type": "function"
    },
    {
      "inputs": [
        {
          "internalType": "bytes4",
          "name": "interfaceId",
          "type": "bytes4"
        }
      ],
      "name": "supportsInterface",
      "outputs": [
        {
          "internalType": "bool",
          "name": "",
          "type": "bool"
        }
      ],
      "stateMutability": "view",
      "type": "function"
    },
    {
      "inputs": [],
      "name": "symbol",
      "outputs": [
        {
          "internalType": "string",
          "name": "",
          "type": "string"
        }
      ],
      "stateMutability": "view",
      "type": "function"
    },
    {
      "inputs": [
        {
          "internalType": "uint256",
          "name": "index",
          "type": "uint256"
        }
      ],
      "name": "tokenByIndex",
      "outputs": [
        {
          "internalType": "uint256",
          "name": "",
          "type": "uint256"
        }
      ],
      "stateMutability": "view",
      "type": "function"
    },
    {
      "inputs": [
        {
          "internalType": "address",
          "name": "owner",
          "type": "address"
        },
        {
          "internalType": "uint256",
          "name": "index",
          "type": "uint256"
        }
      ],
      "name": "tokenOfOwnerByIndex",
      "outputs": [
        {
          "internalType": "uint256",
          "name": "",
          "type": "uint256"
        }
      ],
      "stateMutability": "view",
      "type": "function"
    },
    {
      "inputs": [
        {
          "internalType": "uint256",
          "name": "tokenId",
          "type": "uint256"
        }
      ],
      "name": "tokenURI",
      "outputs": [
        {
          "internalType": "string",
          "name": "",
          "type": "string"
        }
      ],
      "stateMutability": "view",
      "type": "function"
    },
    {
      "inputs": [],
      "name": "totalSupply",
      "outputs": [
        {
          "internalType": "uint256",
          "name": "",
          "type": "uint256"
        }
      ],
      "stateMutability": "view",
      "type": "function"
    },
    {
      "inputs": [
        {
          "internalType": "address",
          "name": "from",
          "type": "address"
        },
        {
          "internalType": "address",
          "name": "to",
          "type": "address"
        },
        {
          "internalType": "uint256",
          "name": "tokenId",
          "type": "uint256"
        }
      ],
      "name": "transferFrom",
      "outputs": [],
      "stateMutability": "nonpayable",
      "type": "function"
    },
    {
      "inputs": [
        {
          "internalType": "address",
          "name": "newOwner",
          "type": "address"
        }
      ],
      "name": "transferOwnership",
      "outputs": [],
      "stateMutability": "nonpayable",
      "type": "function"
    },
    {
      "inputs": [
        {
          "internalType": "uint256",
          "name": "tokenId",
          "type": "uint256"
        }
      ],
      "name": "verificarIngresso",
      "outputs": [
        {
          "internalType": "bool",
          "name": "",
          "type": "bool"
        }
      ],
      "stateMutability": "view",
      "type": "function"
    }
  ],
  "bytecode": "0x60806040526001600c553480156200001657600080fd5b503360405180604001604052806009815260200168151a58dad95d13919560ba1b815250604051806040016040528060048152602001631510d2d560e21b8152508160009081620000689190620001b7565b506001620000778282620001b7565b5050506001600160a01b038116620000a957604051631e4fbdf760e01b81526000600482015260240160405180910390fd5b620000b481620000c0565b506001600b5562000283565b600a80546001600160a01b038381166001600160a01b0319831681179093556040519116919082907f8be0079c531659141344cd1fd0a4f28419497f9722a3daafe3b4186f6b6457e090600090a35050565b634e487b7160e01b600052604160045260246000fd5b600181811c908216806200013d57607f821691505b6020821081036200015e57634e487b7160e01b600052602260045260246000fd5b50919050565b601f821115620001b257600081815260208120601f850160051c810160208610156200018d5750805b601f850160051c820191505b81811015620001ae5782815560010162000199565b5050505b505050565b81516001600160401b03811115620001d357620001d362000112565b620001eb81620001e4845462000128565b8462000164565b602080601f8311600181146200022357600084156200020a5750858301515b600019600386901b1c1916600185901b178555620001ae565b600085815260208120601f198616915b82811015620002545788860151825594840194600190910190840162000233565b5085821015620002735787850151600019600388901b60f8161c191681555b5050505050600190811b01905550565b61236680620002936000396000f3fe6080604052600436106101cd5760003560e01c80636352211e116100f7578063a22cb46511610095578063c87b56dd11610064578063c87b56dd14610543578063c8b86c6d14610563578063e985e9c514610576578063f2fde38b1461059657600080fd5b8063a22cb465146104c3578063a833431a146104e3578063b7b28ee814610503578063b88d4fde1461052357600080fd5b806375794a3c116100d157806375794a3c1461045a5780638da5cb5b146104705780638f9c654c1461048e57806395d89b41146104ae57600080fd5b80636352211e1461040557806370a0823114610425578063715018a61461044557600080fd5b806323b872dd1161016f57806342842e0e1161013e57806342842e0e146103755780634f6ccce714610395578063574ccbc6146103b55780635d26e8fa146103e557600080fd5b806323b872dd146102f35780632b6e7eb4146103135780632f745c5914610335578063305248fb1461035557600080fd5b8063095ea7b3116101ab578063095ea7b3146102615780630af47e14146102835780630df4932d146102b057806318160ddd146102de57600080fd5b806301ffc9a7146101d257806306fdde0314610207578063081812fc14610229575b600080fd5b3480156101de57600080fd5b506101f26101ed366004611c6b565b6105b6565b60405190151581526020015b60405180910390f35b34801561021357600080fd5b5061021c6105e1565b6040516101fe9190611cd8565b34801561023557600080fd5b50610249610244366004611ceb565b610673565b6040516001600160a01b0390911681526020016101fe565b34801561026d57600080fd5b5061028161027c366004611d19565b61069c565b005b34801561028f57600080fd5b506102a361029e366004611ceb565b6106ab565b6040516101fe9190611d7d565b3480156102bc57600080fd5b506102d06102cb366004611ceb565b6106ff565b6040519081526020016101fe565b3480156102ea57600080fd5b506008546102d0565b3480156102ff57600080fd5b5061028161030e366004611d8b565b610747565b34801561031f57600080fd5b506103286107d2565b6040516101fe9190611dcc565b34801561034157600080fd5b506102d0610350366004611d19565b610872565b34801561036157600080fd5b506101f2610370366004611ceb565b6108d7565b34801561038157600080fd5b50610281610390366004611d8b565b610947565b3480156103a157600080fd5b506102d06103b0366004611ceb565b610967565b3480156103c157600080fd5b506103d56103d0366004611ceb565b6109c0565b6040516101fe9493929190611e10565b3480156103f157600080fd5b50610328610400366004611e47565b610a75565b34801561041157600080fd5b50610249610420366004611ceb565b610b17565b34801561043157600080fd5b506102d0610440366004611e47565b610b22565b34801561045157600080fd5b50610281610b6a565b34801561046657600080fd5b506102d0600c5481565b34801561047c57600080fd5b50600a546001600160a01b0316610249565b34801561049a57600080fd5b506102816104a9366004611e64565b610b7e565b3480156104ba57600080fd5b5061021c610bee565b3480156104cf57600080fd5b506102816104de366004611e98565b610bfd565b3480156104ef57600080fd5b506102816104fe366004611ecb565b610c08565b34801561050f57600080fd5b5061028161051e366004611f79565b610ce6565b34801561052f57600080fd5b5061028161053e366004611fdb565b610e36565b34801561054f57600080fd5b5061021c61055e366004611ceb565b610e4e565b610281610571366004611ceb565b610ec3565b34801561058257600080fd5b506101f261059136600461205b565b611116565b3480156105a257600080fd5b506102816105b1366004611e47565b611144565b60006001600160e01b0319821663780e9d6360e01b14806105db57506105db8261117f565b92915050565b6060600080546105f090612089565b80601f016020809104026020016040519081016040528092919081815260200182805461061c90612089565b80156106695780601f1061063e57610100808354040283529160200191610669565b820191906000526020600020905b81548152906001019060200180831161064c57829003601f168201915b5050505050905090565b600061067e826111cf565b506000828152600460205260409020546001600160a01b03166105db565b6106a7828233611208565b5050565b6000806106b783610b17565b6001600160a01b0316036106e65760405162461bcd60e51b81526004016106dd906120c3565b60405180910390fd5b506000908152600d602052604090206003015460ff1690565b60008061070b83610b17565b6001600160a01b0316036107315760405162461bcd60e51b81526004016106dd906120c3565b506000908152600d602052604090206002015490565b6001600160a01b03821661077157604051633250574960e11b8152600060048201526024016106dd565b600061077e838333611215565b9050836001600160a01b0316816001600160a01b0316146107cc576040516364283d7b60e01b81526001600160a01b03808616600483015260248201849052821660448201526064016106dd565b50505050565b606060006107df60085490565b905060008167ffffffffffffffff8111156107fc576107fc611eed565b604051908082528060200260200182016040528015610825578160200160208202803683370190505b50905060005b8281101561086b5761083c81610967565b82828151811061084e5761084e6120f1565b6020908102919091010152806108638161211d565b91505061082b565b5092915050565b600061087d83610b22565b82106108ae5760405163295f44f760e21b81526001600160a01b0384166004820152602481018390526044016106dd565b506001600160a01b03919091166000908152600660209081526040808320938352929052205490565b6040516331a9108f60e11b8152600481018290526000903090636352211e90602401602060405180830381865afa925050508015610932575060408051601f3d908101601f1916820190925261092f91810190612136565b60015b61093e57506000919050565b50600192915050565b61096283838360405180602001604052806000815250610e36565b505050565b600061097260085490565b821061099b5760405163295f44f760e21b815260006004820152602481018390526044016106dd565b600882815481106109ae576109ae6120f1565b90600052602060002001549050919050565b600d602052600090815260409020805481906109db90612089565b80601f0160208091040260200160405190810160405280929190818152602001828054610a0790612089565b8015610a545780601f10610a2957610100808354040283529160200191610a54565b820191906000526020600020905b815481529060010190602001808311610a3757829003601f168201915b50505050600183015460028401546003909401549293909290915060ff1684565b60606000610a8283610b22565b905060008167ffffffffffffffff811115610a9f57610a9f611eed565b604051908082528060200260200182016040528015610ac8578160200160208202803683370190505b50905060005b82811015610b0f57610ae08582610872565b828281518110610af257610af26120f1565b602090810291909101015280610b078161211d565b915050610ace565b509392505050565b60006105db826111cf565b60006001600160a01b038216610b4e576040516322718ad960e21b8152600060048201526024016106dd565b506001600160a01b031660009081526003602052604090205490565b610b726112ea565b610b7c6000611317565b565b610b866112ea565b6000610b9183610b17565b6001600160a01b031603610bb75760405162461bcd60e51b81526004016106dd906120c3565b6000828152600d60205260409020600301805482919060ff19166001836002811115610be557610be5611d45565b02179055505050565b6060600180546105f090612089565b6106a7338383611369565b6000610c1383610b17565b6001600160a01b031603610c395760405162461bcd60e51b81526004016106dd906120c3565b33610c4383610b17565b6001600160a01b031614610c875760405162461bcd60e51b815260206004820152600b60248201526a4e616f20656820646f6e6f60a81b60448201526064016106dd565b6000828152600d60209081526040918290206001810184905560038101805460ff19166002179055915183815284917f8be115ffe66ef5771884b3f15ce409bd9eedf70ad2538fe809527531e2545e05910160405180910390a2505050565b610cee6112ea565b428111610d3d5760405162461bcd60e51b815260206004820152601e60248201527f4461746120646f206576656e746f20646576652073657220667574757261000060448201526064016106dd565b600c805460009182610d4e8361211d565b919050559050610d6f610d69600a546001600160a01b031690565b82611408565b604080516080810182528581526020810185905290810183905260608101600090526000828152600d6020526040902081518190610dad9082612199565b50602082015181600101556040820151816002015560608201518160030160006101000a81548160ff02191690836002811115610dec57610dec611d45565b0217905550905050807f6f818adb419e049450d1d43ce9a84db8f23fe2ad514723541ab7bf9684cdb666858585604051610e2893929190612259565b60405180910390a250505050565b610e41848484610747565b6107cc3385858585611422565b6060610e59826111cf565b506000610e7160408051602081019091526000815290565b90506000815111610e915760405180602001604052806000815250610ebc565b80610e9b8461154d565b604051602001610eac92919061227e565b6040516020818303038152906040525b9392505050565b610ecb6115e0565b6000610ed682610b17565b6001600160a01b031603610efc5760405162461bcd60e51b81526004016106dd906120c3565b6000818152600d6020526040812090610f1483610b17565b90506001600383015460ff166002811115610f3157610f31611d45565b03610f7e5760405162461bcd60e51b815260206004820152601960248201527f496e67726573736f206e616f206573746120612076656e64610000000000000060448201526064016106dd565b8160010154341015610fc75760405162461bcd60e51b815260206004820152601260248201527156616c6f7220696e737566696369656e746560701b60448201526064016106dd565b336001600160a01b038216036110115760405162461bcd60e51b815260206004820152600f60248201526e566f6365206a6120656820646f6e6f60881b60448201526064016106dd565b60038201805460ff191660011790556040516000906001600160a01b0383169034908381818185875af1925050503d806000811461106b576040519150601f19603f3d011682016040523d82523d6000602084013e611070565b606091505b50509050806110b35760405162461bcd60e51b815260206004820152600f60248201526e151c985b9cd9995c8819985a5b1959608a1b60448201526064016106dd565b6110be82338661160a565b336001600160a01b0316847f9e589efcb0cc842edca0193136ec83dae8949ca5493aef39b6c71d45b0dc99db85600101546040516110fe91815260200190565b60405180910390a35050506111136001600b55565b50565b6001600160a01b03918216600090815260056020908152604080832093909416825291909152205460ff1690565b61114c6112ea565b6001600160a01b03811661117657604051631e4fbdf760e01b8152600060048201526024016106dd565b61111381611317565b60006001600160e01b031982166380ac58cd60e01b14806111b057506001600160e01b03198216635b5e139f60e01b145b806105db57506301ffc9a760e01b6001600160e01b03198316146105db565b6000818152600260205260408120546001600160a01b0316806105db57604051637e27328960e01b8152600481018490526024016106dd565b61096283838360016116ba565b6000806112238585856117c0565b90506001600160a01b0381166112805761127b84600880546000838152600960205260408120829055600182018355919091527ff3f7a9fe364faab93b216da50a3214154f22a0a2b415b23a84c8169e8b636ee30155565b6112a3565b846001600160a01b0316816001600160a01b0316146112a3576112a381856118b9565b6001600160a01b0385166112bf576112ba8461193a565b6112e2565b846001600160a01b0316816001600160a01b0316146112e2576112e285856119e9565b949350505050565b600a546001600160a01b03163314610b7c5760405163118cdaa760e01b81523360048201526024016106dd565b600a80546001600160a01b038381166001600160a01b0319831681179093556040519116919082907f8be0079c531659141344cd1fd0a4f28419497f9722a3daafe3b4186f6b6457e090600090a35050565b6001600160a01b03821661139b57604051630b61174360e31b81526001600160a01b03831660048201526024016106dd565b6001600160a01b03838116600081815260056020908152604080832094871680845294825291829020805460ff191686151590811790915591519182527f17307eab39ab6107e8899845ad3d59bd9653f200f220920489ca2b5937696c31910160405180910390a3505050565b6106a7828260405180602001604052806000815250611a39565b6001600160a01b0383163b1561154657604051630a85bd0160e11b81526001600160a01b0384169063150b7a02906114649088908890879087906004016122ad565b6020604051808303816000875af192505050801561149f575060408051601f3d908101601f1916820190925261149c918101906122ea565b60015b611508573d8080156114cd576040519150601f19603f3d011682016040523d82523d6000602084013e6114d2565b606091505b50805160000361150057604051633250574960e11b81526001600160a01b03851660048201526024016106dd565b805160208201fd5b6001600160e01b03198116630a85bd0160e11b1461154457604051633250574960e11b81526001600160a01b03851660048201526024016106dd565b505b5050505050565b6060600061155a83611a51565b600101905060008167ffffffffffffffff81111561157a5761157a611eed565b6040519080825280601f01601f1916602001820160405280156115a4576020820181803683370190505b5090508181016020015b600019016f181899199a1a9b1b9c1cb0b131b232b360811b600a86061a8153600a85049450846115ae57509392505050565b6002600b540361160357604051633ee5aeb560e01b815260040160405180910390fd5b6002600b55565b6001600160a01b03821661163457604051633250574960e11b8152600060048201526024016106dd565b600061164283836000611215565b90506001600160a01b03811661166e57604051637e27328960e01b8152600481018390526024016106dd565b836001600160a01b0316816001600160a01b0316146107cc576040516364283d7b60e01b81526001600160a01b03808616600483015260248201849052821660448201526064016106dd565b80806116ce57506001600160a01b03821615155b156117905760006116de846111cf565b90506001600160a01b0383161580159061170a5750826001600160a01b0316816001600160a01b031614155b801561171d575061171b8184611116565b155b156117465760405163a9fbf51f60e01b81526001600160a01b03841660048201526024016106dd565b811561178e5783856001600160a01b0316826001600160a01b03167f8c5be1e5ebec7d5bd14f71427d1e84f3dd0314c0f7b2291e5b200ac8c7c3b92560405160405180910390a45b505b5050600090815260046020526040902080546001600160a01b0319166001600160a01b0392909216919091179055565b6000828152600260205260408120546001600160a01b03908116908316156117ed576117ed818486611b29565b6001600160a01b0381161561182b5761180a6000856000806116ba565b6001600160a01b038116600090815260036020526040902080546000190190555b6001600160a01b0385161561185a576001600160a01b0385166000908152600360205260409020805460010190555b60008481526002602052604080822080546001600160a01b0319166001600160a01b0389811691821790925591518793918516917fddf252ad1be2c89b69c2b068fc378daa952ba7f163c4a11628f55a4df523b3ef91a4949350505050565b60006118c483610b22565b6000838152600760209081526040808320546001600160a01b038816845260069092529091209192509081831461191b57600083815260208281526040808320548584528184208190558352600790915290208290555b6000938452600760209081526040808620869055938552525081205550565b60085460009061194c90600190612307565b60008381526009602052604081205460088054939450909284908110611974576119746120f1565b906000526020600020015490508060088381548110611995576119956120f1565b60009182526020808320909101929092558281526009909152604080822084905585825281205560088054806119cd576119cd61231a565b6001900381819060005260206000200160009055905550505050565b600060016119f684610b22565b611a009190612307565b6001600160a01b039093166000908152600660209081526040808320868452825280832085905593825260079052919091209190915550565b611a438383611b8d565b610962336000858585611422565b60008072184f03e93ff9f4daa797ed6e38ed64bf6a1f0160401b8310611a905772184f03e93ff9f4daa797ed6e38ed64bf6a1f0160401b830492506040015b6d04ee2d6d415b85acef81000000008310611abc576d04ee2d6d415b85acef8100000000830492506020015b662386f26fc100008310611ada57662386f26fc10000830492506010015b6305f5e1008310611af2576305f5e100830492506008015b6127108310611b0657612710830492506004015b60648310611b18576064830492506002015b600a83106105db5760010192915050565b611b34838383611bf2565b610962576001600160a01b038316611b6257604051637e27328960e01b8152600481018290526024016106dd565b60405163177e802f60e01b81526001600160a01b0383166004820152602481018290526044016106dd565b6001600160a01b038216611bb757604051633250574960e11b8152600060048201526024016106dd565b6000611bc583836000611215565b90506001600160a01b03811615610962576040516339e3563760e11b8152600060048201526024016106dd565b60006001600160a01b038316158015906112e25750826001600160a01b0316846001600160a01b03161480611c2c5750611c2c8484611116565b806112e25750506000908152600460205260409020546001600160a01b03908116911614919050565b6001600160e01b03198116811461111357600080fd5b600060208284031215611c7d57600080fd5b8135610ebc81611c55565b60005b83811015611ca3578181015183820152602001611c8b565b50506000910152565b60008151808452611cc4816020860160208601611c88565b601f01601f19169290920160200192915050565b602081526000610ebc6020830184611cac565b600060208284031215611cfd57600080fd5b5035919050565b6001600160a01b038116811461111357600080fd5b60008060408385031215611d2c57600080fd5b8235611d3781611d04565b946020939093013593505050565b634e487b7160e01b600052602160045260246000fd5b60038110611d7957634e487b7160e01b600052602160045260246000fd5b9052565b602081016105db8284611d5b565b600080600060608486031215611da057600080fd5b8335611dab81611d04565b92506020840135611dbb81611d04565b929592945050506040919091013590565b6020808252825182820181905260009190848201906040850190845b81811015611e0457835183529284019291840191600101611de8565b50909695505050505050565b608081526000611e236080830187611cac565b9050846020830152836040830152611e3e6060830184611d5b565b95945050505050565b600060208284031215611e5957600080fd5b8135610ebc81611d04565b60008060408385031215611e7757600080fd5b82359150602083013560038110611e8d57600080fd5b809150509250929050565b60008060408385031215611eab57600080fd5b8235611eb681611d04565b915060208301358015158114611e8d57600080fd5b60008060408385031215611ede57600080fd5b50508035926020909101359150565b634e487b7160e01b600052604160045260246000fd5b600067ffffffffffffffff80841115611f1e57611f1e611eed565b604051601f8501601f19908116603f01168101908282118183101715611f4657611f46611eed565b81604052809350858152868686011115611f5f57600080fd5b858560208301376000602087830101525050509392505050565b600080600060608486031215611f8e57600080fd5b833567ffffffffffffffff811115611fa557600080fd5b8401601f81018613611fb657600080fd5b611fc586823560208401611f03565b9660208601359650604090950135949350505050565b60008060008060808587031215611ff157600080fd5b8435611ffc81611d04565b9350602085013561200c81611d04565b925060408501359150606085013567ffffffffffffffff81111561202f57600080fd5b8501601f8101871361204057600080fd5b61204f87823560208401611f03565b91505092959194509250565b6000806040838503121561206e57600080fd5b823561207981611d04565b91506020830135611e8d81611d04565b600181811c9082168061209d57607f821691505b6020821081036120bd57634e487b7160e01b600052602260045260246000fd5b50919050565b602080825260149082015273496e67726573736f20696e6578697374656e746560601b604082015260600190565b634e487b7160e01b600052603260045260246000fd5b634e487b7160e01b600052601160045260246000fd5b60006001820161212f5761212f612107565b5060010190565b60006020828403121561214857600080fd5b8151610ebc81611d04565b601f82111561096257600081815260208120601f850160051c8101602086101561217a5750805b601f850160051c820191505b8181101561154457828155600101612186565b815167ffffffffffffffff8111156121b3576121b3611eed565b6121c7816121c18454612089565b84612153565b602080601f8311600181146121fc57600084156121e45750858301515b600019600386901b1c1916600185901b178555611544565b600085815260208120601f198616915b8281101561222b5788860151825594840194600190910190840161220c565b50858210156122495787850151600019600388901b60f8161c191681555b5050505050600190811b01905550565b60608152600061226c6060830186611cac565b60208301949094525060400152919050565b60008351612290818460208801611c88565b8351908301906122a4818360208801611c88565b01949350505050565b6001600160a01b03858116825284166020820152604081018390526080606082018190526000906122e090830184611cac565b9695505050505050565b6000602082840312156122fc57600080fd5b8151610ebc81611c55565b818103818111156105db576105db612107565b634e487b7160e01b600052603160045260246000fdfea264697066735822122041193cd715bce071ae18ef651a2dc28767b6162765d7fa274f1fb844b3c2124164736f6c63430008140033",
  "linkReferences": {},
  "deployedLinkReferences": {}
}